{
  "contractName": "CitizenSim",
  "abi": [
    {
      "constant": true,
      "inputs": [
        {
          "name": "_interfaceId",
          "type": "bytes4"
        }
      ],
      "name": "supportsInterface",
      "outputs": [
        {
          "name": "",
          "type": "bool"
        }
      ],
      "payable": false,
      "stateMutability": "view",
      "type": "function"
    },
    {
      "constant": true,
      "inputs": [],
      "name": "name",
      "outputs": [
        {
          "name": "",
          "type": "string"
        }
      ],
      "payable": false,
      "stateMutability": "view",
      "type": "function"
    },
    {
      "constant": true,
      "inputs": [
        {
          "name": "_tokenId",
          "type": "uint256"
        }
      ],
      "name": "getApproved",
      "outputs": [
        {
          "name": "",
          "type": "address"
        }
      ],
      "payable": false,
      "stateMutability": "view",
      "type": "function"
    },
    {
      "constant": false,
      "inputs": [
        {
          "name": "_to",
          "type": "address"
        },
        {
          "name": "_tokenId",
          "type": "uint256"
        }
      ],
      "name": "approve",
      "outputs": [],
      "payable": false,
      "stateMutability": "nonpayable",
      "type": "function"
    },
    {
      "constant": true,
      "inputs": [
        {
          "name": "",
          "type": "uint256"
        }
      ],
      "name": "citizens",
      "outputs": [
        {
          "name": "name",
          "type": "string"
        },
        {
          "name": "birthTime",
          "type": "uint64"
        },
        {
          "name": "stamina",
          "type": "uint256"
        },
        {
          "name": "strength",
          "type": "uint256"
        },
        {
          "name": "perception",
          "type": "uint256"
        },
        {
          "name": "endurance",
          "type": "uint256"
        },
        {
          "name": "charisma",
          "type": "uint256"
        },
        {
          "name": "intelligence",
          "type": "uint256"
        },
        {
          "name": "agility",
          "type": "uint256"
        },
        {
          "name": "luck",
          "type": "uint256"
        },
        {
          "name": "lastExecutionTime",
          "type": "uint64"
        },
        {
          "name": "totalTask",
          "type": "uint256"
        },
        {
          "name": "resources",
          "type": "uint256"
        }
      ],
      "payable": false,
      "stateMutability": "view",
      "type": "function"
    },
    {
      "constant": true,
      "inputs": [],
      "name": "totalSupply",
      "outputs": [
        {
          "name": "",
          "type": "uint256"
        }
      ],
      "payable": false,
      "stateMutability": "view",
      "type": "function"
    },
    {
      "constant": true,
      "inputs": [],
      "name": "InterfaceId_ERC165",
      "outputs": [
        {
          "name": "",
          "type": "bytes4"
        }
      ],
      "payable": false,
      "stateMutability": "view",
      "type": "function"
    },
    {
      "constant": false,
      "inputs": [
        {
          "name": "_from",
          "type": "address"
        },
        {
          "name": "_to",
          "type": "address"
        },
        {
          "name": "_tokenId",
          "type": "uint256"
        }
      ],
      "name": "transferFrom",
      "outputs": [],
      "payable": false,
      "stateMutability": "nonpayable",
      "type": "function"
    },
    {
      "constant": true,
      "inputs": [
        {
          "name": "_owner",
          "type": "address"
        },
        {
          "name": "_index",
          "type": "uint256"
        }
      ],
      "name": "tokenOfOwnerByIndex",
      "outputs": [
        {
          "name": "",
          "type": "uint256"
        }
      ],
      "payable": false,
      "stateMutability": "view",
      "type": "function"
    },
    {
      "constant": false,
      "inputs": [
        {
          "name": "_from",
          "type": "address"
        },
        {
          "name": "_to",
          "type": "address"
        },
        {
          "name": "_tokenId",
          "type": "uint256"
        }
      ],
      "name": "safeTransferFrom",
      "outputs": [],
      "payable": false,
      "stateMutability": "nonpayable",
      "type": "function"
    },
    {
      "constant": true,
      "inputs": [
        {
          "name": "_tokenId",
          "type": "uint256"
        }
      ],
      "name": "exists",
      "outputs": [
        {
          "name": "",
          "type": "bool"
        }
      ],
      "payable": false,
      "stateMutability": "view",
      "type": "function"
    },
    {
      "constant": true,
      "inputs": [
        {
          "name": "_index",
          "type": "uint256"
        }
      ],
      "name": "tokenByIndex",
      "outputs": [
        {
          "name": "",
          "type": "uint256"
        }
      ],
      "payable": false,
      "stateMutability": "view",
      "type": "function"
    },
    {
      "constant": true,
      "inputs": [
        {
          "name": "_tokenId",
          "type": "uint256"
        }
      ],
      "name": "ownerOf",
      "outputs": [
        {
          "name": "",
          "type": "address"
        }
      ],
      "payable": false,
      "stateMutability": "view",
      "type": "function"
    },
    {
      "constant": true,
      "inputs": [
        {
          "name": "_owner",
          "type": "address"
        }
      ],
      "name": "balanceOf",
      "outputs": [
        {
          "name": "",
          "type": "uint256"
        }
      ],
      "payable": false,
      "stateMutability": "view",
      "type": "function"
    },
    {
      "constant": true,
      "inputs": [],
      "name": "owner",
      "outputs": [
        {
          "name": "",
          "type": "address"
        }
      ],
      "payable": false,
      "stateMutability": "view",
      "type": "function"
    },
    {
      "constant": true,
      "inputs": [],
      "name": "symbol",
      "outputs": [
        {
          "name": "",
          "type": "string"
        }
      ],
      "payable": false,
      "stateMutability": "view",
      "type": "function"
    },
    {
      "constant": false,
      "inputs": [
        {
          "name": "_to",
          "type": "address"
        },
        {
          "name": "_approved",
          "type": "bool"
        }
      ],
      "name": "setApprovalForAll",
      "outputs": [],
      "payable": false,
      "stateMutability": "nonpayable",
      "type": "function"
    },
    {
      "constant": false,
      "inputs": [
        {
          "name": "_from",
          "type": "address"
        },
        {
          "name": "_to",
          "type": "address"
        },
        {
          "name": "_tokenId",
          "type": "uint256"
        },
        {
          "name": "_data",
          "type": "bytes"
        }
      ],
      "name": "safeTransferFrom",
      "outputs": [],
      "payable": false,
      "stateMutability": "nonpayable",
      "type": "function"
    },
    {
      "constant": true,
      "inputs": [
        {
          "name": "_tokenId",
          "type": "uint256"
        }
      ],
      "name": "tokenURI",
      "outputs": [
        {
          "name": "",
          "type": "string"
        }
      ],
      "payable": false,
      "stateMutability": "view",
      "type": "function"
    },
    {
      "constant": true,
      "inputs": [],
      "name": "STAMINA_REGENRATION",
      "outputs": [
        {
          "name": "",
          "type": "uint256"
        }
      ],
      "payable": false,
      "stateMutability": "view",
      "type": "function"
    },
    {
      "constant": true,
      "inputs": [
        {
          "name": "_owner",
          "type": "address"
        },
        {
          "name": "_operator",
          "type": "address"
        }
      ],
      "name": "isApprovedForAll",
      "outputs": [
        {
          "name": "",
          "type": "bool"
        }
      ],
      "payable": false,
      "stateMutability": "view",
      "type": "function"
    },
    {
      "inputs": [],
      "payable": false,
      "stateMutability": "nonpayable",
      "type": "constructor"
    },
    {
      "anonymous": false,
      "inputs": [
        {
          "indexed": true,
          "name": "_from",
          "type": "address"
        },
        {
          "indexed": true,
          "name": "_to",
          "type": "address"
        },
        {
          "indexed": true,
          "name": "_tokenId",
          "type": "uint256"
        }
      ],
      "name": "Transfer",
      "type": "event"
    },
    {
      "anonymous": false,
      "inputs": [
        {
          "indexed": true,
          "name": "_owner",
          "type": "address"
        },
        {
          "indexed": true,
          "name": "_approved",
          "type": "address"
        },
        {
          "indexed": true,
          "name": "_tokenId",
          "type": "uint256"
        }
      ],
      "name": "Approval",
      "type": "event"
    },
    {
      "anonymous": false,
      "inputs": [
        {
          "indexed": true,
          "name": "_owner",
          "type": "address"
        },
        {
          "indexed": true,
          "name": "_operator",
          "type": "address"
        },
        {
          "indexed": false,
          "name": "_approved",
          "type": "bool"
        }
      ],
      "name": "ApprovalForAll",
      "type": "event"
    },
    {
      "constant": false,
      "inputs": [
        {
          "name": "_name",
          "type": "string"
        },
        {
          "name": "_to",
          "type": "address"
        },
        {
          "name": "_strength",
          "type": "uint256"
        },
        {
          "name": "_perception",
          "type": "uint256"
        },
        {
          "name": "_endurance",
          "type": "uint256"
        },
        {
          "name": "_charisma",
          "type": "uint256"
        },
        {
          "name": "_intelligence",
          "type": "uint256"
        },
        {
          "name": "_agility",
          "type": "uint256"
        },
        {
          "name": "_luck",
          "type": "uint256"
        }
      ],
      "name": "createCitizen",
      "outputs": [],
      "payable": false,
      "stateMutability": "nonpayable",
      "type": "function"
    },
    {
      "constant": false,
      "inputs": [
        {
          "name": "_citizenId",
          "type": "uint256"
        }
      ],
      "name": "Logistics",
      "outputs": [],
      "payable": false,
      "stateMutability": "nonpayable",
      "type": "function"
    },
    {
      "constant": false,
      "inputs": [
        {
          "name": "_citizenId",
          "type": "uint256"
        }
      ],
      "name": "BusinessDevelopment",
      "outputs": [],
      "payable": false,
      "stateMutability": "nonpayable",
      "type": "function"
    },
    {
      "constant": false,
      "inputs": [
        {
          "name": "_citizenId",
          "type": "uint256"
        }
      ],
      "name": "Accounting",
      "outputs": [],
      "payable": false,
      "stateMutability": "nonpayable",
      "type": "function"
    },
    {
      "constant": false,
      "inputs": [
        {
          "name": "_citizenId",
          "type": "uint256"
        }
      ],
      "name": "Marketing",
      "outputs": [],
      "payable": false,
      "stateMutability": "nonpayable",
      "type": "function"
    },
    {
      "constant": false,
      "inputs": [
        {
          "name": "_citizenId",
          "type": "uint256"
        }
      ],
      "name": "IT",
      "outputs": [],
      "payable": false,
      "stateMutability": "nonpayable",
      "type": "function"
    },
    {
      "constant": false,
      "inputs": [
        {
          "name": "_citizenId",
          "type": "uint256"
        }
      ],
      "name": "Security",
      "outputs": [],
      "payable": false,
      "stateMutability": "nonpayable",
      "type": "function"
    },
    {
      "constant": false,
      "inputs": [
        {
          "name": "_citizenId",
          "type": "uint256"
        }
      ],
      "name": "HR",
      "outputs": [],
      "payable": false,
      "stateMutability": "nonpayable",
      "type": "function"
    },
    {
      "constant": false,
      "inputs": [
        {
          "name": "_citizenId",
          "type": "uint256"
        },
        {
          "name": "_targetId",
          "type": "uint256"
        }
      ],
      "name": "battle",
      "outputs": [],
      "payable": false,
      "stateMutability": "nonpayable",
      "type": "function"
    },
    {
      "constant": false,
      "inputs": [
        {
          "name": "_s",
          "type": "uint256"
        },
        {
          "name": "_p",
          "type": "uint256"
        },
        {
          "name": "_e",
          "type": "uint256"
        },
        {
          "name": "_c",
          "type": "uint256"
        },
        {
          "name": "_i",
          "type": "uint256"
        },
        {
          "name": "_a",
          "type": "uint256"
        },
        {
          "name": "_l",
          "type": "uint256"
        },
        {
          "name": "_mode",
          "type": "uint256"
        }
      ],
      "name": "_BattleScoreCal",
      "outputs": [
        {
          "name": "answer",
          "type": "uint256"
        }
      ],
      "payable": false,
      "stateMutability": "nonpayable",
      "type": "function"
    },
    {
      "constant": false,
      "inputs": [
        {
          "name": "rawScore",
          "type": "uint256"
        },
        {
          "name": "_l",
          "type": "uint256"
        }
      ],
      "name": "luckmodifier",
      "outputs": [
        {
          "name": "answer",
          "type": "uint256"
        }
      ],
      "payable": false,
      "stateMutability": "nonpayable",
      "type": "function"
    }
  ],
  "bytecode": "0x60806040523480156200001157600080fd5b506040805190810160405280600e81526020017f4f6666696365506f6c69746963730000000000000000000000000000000000008152506040805190810160405280600281526020017f4f50000000000000000000000000000000000000000000000000000000000000815250620000bb6301ffc9a77c0100000000000000000000000000000000000000000000000000000000026200022a640100000000026401000000009004565b620000f86380ac58cd7c0100000000000000000000000000000000000000000000000000000000026200022a640100000000026401000000009004565b62000135634f558e797c0100000000000000000000000000000000000000000000000000000000026200022a640100000000026401000000009004565b81600590805190602001906200014d929190620002e8565b50806006908051906020019062000166929190620002e8565b50620001a463780e9d637c0100000000000000000000000000000000000000000000000000000000026200022a640100000000026401000000009004565b620001e1635b5e139f7c0100000000000000000000000000000000000000000000000000000000026200022a640100000000026401000000009004565b505033600d60006101000a81548173ffffffffffffffffffffffffffffffffffffffff021916908373ffffffffffffffffffffffffffffffffffffffff16021790555062000397565b63ffffffff7c010000000000000000000000000000000000000000000000000000000002817bffffffffffffffffffffffffffffffffffffffffffffffffffffffff1916141515156200027c57600080fd5b6001600080837bffffffffffffffffffffffffffffffffffffffffffffffffffffffff19167bffffffffffffffffffffffffffffffffffffffffffffffffffffffff1916815260200190815260200160002060006101000a81548160ff02191690831515021790555050565b828054600181600116156101000203166002900490600052602060002090601f016020900481019282601f106200032b57805160ff19168380011785556200035c565b828001600101855582156200035c579182015b828111156200035b5782518255916020019190600101906200033e565b5b5090506200036b91906200036f565b5090565b6200039491905b808211156200039057600081600090555060010162000376565b5090565b90565b61465a80620003a76000396000f300608060405260043610610196576000357c0100000000000000000000000000000000000000000000000000000000900463ffffffff16806301ffc9a71461019b57806306fdde03146101ff578063081812fc1461028f578063095ea7b3146102fc57806309a34f0014610349578063103ce5961461046b57806318160ddd1461049857806319fa8f50146104c357806323b872dd1461052c5780632a0c5221146105995780632f745c59146105d057806342842e0e146106315780634f558e791461069e5780634f6ccce7146106e357806353c26bec1461072457806356bb4bd914610751578063614193081461079c5780636352211e146107c957806370a08231146108365780638da5cb5b1461088d57806392fc7fb8146108e457806395d89b4114610911578063a22cb465146109a1578063aeb963b3146109f0578063b14f35d314610a1d578063b88d4fde14610a4a578063c87b56dd14610afd578063ca44144f14610ba3578063d45ed85114610c72578063d8fb15dd14610cf9578063db54617d14610d26578063e985e9c514610d51575b600080fd5b3480156101a757600080fd5b506101e560048036038101908080357bffffffffffffffffffffffffffffffffffffffffffffffffffffffff19169060200190929190505050610dcc565b604051808215151515815260200191505060405180910390f35b34801561020b57600080fd5b50610214610e33565b6040518080602001828103825283818151815260200191508051906020019080838360005b83811015610254578082015181840152602081019050610239565b50505050905090810190601f1680156102815780820380516001836020036101000a031916815260200191505b509250505060405180910390f35b34801561029b57600080fd5b506102ba60048036038101908080359060200190929190505050610e6c565b604051808273ffffffffffffffffffffffffffffffffffffffff1673ffffffffffffffffffffffffffffffffffffffff16815260200191505060405180910390f35b34801561030857600080fd5b50610347600480360381019080803573ffffffffffffffffffffffffffffffffffffffff16906020019092919080359060200190929190505050610ea9565b005b34801561035557600080fd5b5061037460048036038101908080359060200190929190505050610fee565b60405180806020018e67ffffffffffffffff1667ffffffffffffffff1681526020018d81526020018c81526020018b81526020018a81526020018981526020018881526020018781526020018681526020018567ffffffffffffffff1667ffffffffffffffff16815260200184815260200183815260200182810382528f818151815260200191508051906020019080838360005b83811015610424578082015181840152602081019050610409565b50505050905090810190601f1680156104515780820380516001836020036101000a031916815260200191505b509e50505050505050505050505050505060405180910390f35b34801561047757600080fd5b5061049660048036038101908080359060200190929190505050611123565b005b3480156104a457600080fd5b506104ad611511565b6040518082815260200191505060405180910390f35b3480156104cf57600080fd5b506104d861151e565b60405180827bffffffffffffffffffffffffffffffffffffffffffffffffffffffff19167bffffffffffffffffffffffffffffffffffffffffffffffffffffffff1916815260200191505060405180910390f35b34801561053857600080fd5b50610597600480360381019080803573ffffffffffffffffffffffffffffffffffffffff169060200190929190803573ffffffffffffffffffffffffffffffffffffffff16906020019092919080359060200190929190505050611545565b005b3480156105a557600080fd5b506105ce6004803603810190808035906020019092919080359060200190929190505050611652565b005b3480156105dc57600080fd5b5061061b600480360381019080803573ffffffffffffffffffffffffffffffffffffffff1690602001909291908035906020019092919050505061183a565b6040518082815260200191505060405180910390f35b34801561063d57600080fd5b5061069c600480360381019080803573ffffffffffffffffffffffffffffffffffffffff169060200190929190803573ffffffffffffffffffffffffffffffffffffffff169060200190929190803590602001909291905050506118b1565b005b3480156106aa57600080fd5b506106c9600480360381019080803590602001909291905050506118e9565b604051808215151515815260200191505060405180910390f35b3480156106ef57600080fd5b5061070e6004803603810190808035906020019092919050505061195b565b6040518082815260200191505060405180910390f35b34801561073057600080fd5b5061074f60048036038101908080359060200190929190505050611993565b005b34801561075d57600080fd5b506107866004803603810190808035906020019092919080359060200190929190505050611d81565b6040518082815260200191505060405180910390f35b3480156107a857600080fd5b506107c760048036038101908080359060200190929190505050611dd3565b005b3480156107d557600080fd5b506107f4600480360381019080803590602001909291905050506121c1565b604051808273ffffffffffffffffffffffffffffffffffffffff1673ffffffffffffffffffffffffffffffffffffffff16815260200191505060405180910390f35b34801561084257600080fd5b50610877600480360381019080803573ffffffffffffffffffffffffffffffffffffffff16906020019092919050505061223f565b6040518082815260200191505060405180910390f35b34801561089957600080fd5b506108a26122c3565b604051808273ffffffffffffffffffffffffffffffffffffffff1673ffffffffffffffffffffffffffffffffffffffff16815260200191505060405180910390f35b3480156108f057600080fd5b5061090f600480360381019080803590602001909291905050506122e9565b005b34801561091d57600080fd5b506109266126d7565b6040518080602001828103825283818151815260200191508051906020019080838360005b8381101561096657808201518184015260208101905061094b565b50505050905090810190601f1680156109935780820380516001836020036101000a031916815260200191505b509250505060405180910390f35b3480156109ad57600080fd5b506109ee600480360381019080803573ffffffffffffffffffffffffffffffffffffffff169060200190929190803515159060200190929190505050612710565b005b3480156109fc57600080fd5b50610a1b6004803603810190808035906020019092919050505061284c565b005b348015610a2957600080fd5b50610a4860048036038101908080359060200190929190505050612c3a565b005b348015610a5657600080fd5b50610afb600480360381019080803573ffffffffffffffffffffffffffffffffffffffff169060200190929190803573ffffffffffffffffffffffffffffffffffffffff16906020019092919080359060200190929190803590602001908201803590602001908080601f0160208091040260200160405190810160405280939291908181526020018383808284378201915050505050509192919290505050613028565b005b348015610b0957600080fd5b50610b2860048036038101908080359060200190929190505050613067565b6040518080602001828103825283818151815260200191508051906020019080838360005b83811015610b68578082015181840152602081019050610b4d565b50505050905090810190601f168015610b955780820380516001836020036101000a031916815260200191505b509250505060405180910390f35b348015610baf57600080fd5b50610c70600480360381019080803590602001908201803590602001908080601f0160208091040260200160405190810160405280939291908181526020018383808284378201915050505050509192919290803573ffffffffffffffffffffffffffffffffffffffff16906020019092919080359060200190929190803590602001909291908035906020019092919080359060200190929190803590602001909291908035906020019092919080359060200190929190505050613130565b005b348015610c7e57600080fd5b50610ce360048036038101908080359060200190929190803590602001909291908035906020019092919080359060200190929190803590602001909291908035906020019092919080359060200190929190803590602001909291905050506132ef565b6040518082815260200191505060405180910390f35b348015610d0557600080fd5b50610d2460048036038101908080359060200190929190505050613396565b005b348015610d3257600080fd5b50610d3b613784565b6040518082815260200191505060405180910390f35b348015610d5d57600080fd5b50610db2600480360381019080803573ffffffffffffffffffffffffffffffffffffffff169060200190929190803573ffffffffffffffffffffffffffffffffffffffff16906020019092919050505061378b565b604051808215151515815260200191505060405180910390f35b6000806000837bffffffffffffffffffffffffffffffffffffffffffffffffffffffff19167bffffffffffffffffffffffffffffffffffffffffffffffffffffffff1916815260200190815260200160002060009054906101000a900460ff169050919050565b6040805190810160405280600e81526020017f4f6666696365506f6c697469637300000000000000000000000000000000000081525081565b60006002600083815260200190815260200160002060009054906101000a900473ffffffffffffffffffffffffffffffffffffffff169050919050565b6000610eb4826121c1565b90508073ffffffffffffffffffffffffffffffffffffffff168373ffffffffffffffffffffffffffffffffffffffff1614151515610ef157600080fd5b8073ffffffffffffffffffffffffffffffffffffffff163373ffffffffffffffffffffffffffffffffffffffff161480610f315750610f30813361378b565b5b1515610f3c57600080fd5b826002600084815260200190815260200160002060006101000a81548173ffffffffffffffffffffffffffffffffffffffff021916908373ffffffffffffffffffffffffffffffffffffffff160217905550818373ffffffffffffffffffffffffffffffffffffffff168273ffffffffffffffffffffffffffffffffffffffff167f8c5be1e5ebec7d5bd14f71427d1e84f3dd0314c0f7b2291e5b200ac8c7c3b92560405160405180910390a4505050565b600c81815481101515610ffd57fe5b90600052602060002090600d0201600091509050806000018054600181600116156101000203166002900480601f0160208091040260200160405190810160405280929190818152602001828054600181600116156101000203166002900480156110a95780601f1061107e576101008083540402835291602001916110a9565b820191906000526020600020905b81548152906001019060200180831161108c57829003601f168201915b5050505050908060010160009054906101000a900467ffffffffffffffff169080600201549080600301549080600401549080600501549080600601549080600701549080600801549080600901549080600a0160009054906101000a900467ffffffffffffffff169080600b01549080600c015490508d565b600080823373ffffffffffffffffffffffffffffffffffffffff16611147826121c1565b73ffffffffffffffffffffffffffffffffffffffff1614151561116957600080fd5b60019250600c805490508410151561118057600080fd5b600c8481548110151561118f57fe5b90600052602060002090600d020191506201518082600a0160009054906101000a900467ffffffffffffffff1667ffffffffffffffff16420311806111d8575060008260020154115b15156111e357600080fd5b6201518082600a0160009054906101000a900467ffffffffffffffff1667ffffffffffffffff16420381151561121557fe5b0482600201540182600201819055508282600201541015151561123757600080fd5b8282600201540382600201819055504282600a0160006101000a81548167ffffffffffffffff021916908367ffffffffffffffff1602179055506103e882600c01540182600c0181905550600a826008015410801561129e5750600461129b61381f565b11155b1561150b57600182600801540182600801819055506028611435836101a06040519081016040529081600082018054600181600116156101000203166002900480601f01602080910402602001604051908101604052809291908181526020018280546001816001161561010002031660029004801561135f5780601f106113345761010080835404028352916020019161135f565b820191906000526020600020905b81548152906001019060200180831161134257829003601f168201915b505050505081526020016001820160009054906101000a900467ffffffffffffffff1667ffffffffffffffff1667ffffffffffffffff1681526020016002820154815260200160038201548152602001600482015481526020016005820154815260200160068201548152602001600782015481526020016008820154815260200160098201548152602001600a820160009054906101000a900467ffffffffffffffff1667ffffffffffffffff1667ffffffffffffffff168152602001600b8201548152602001600c82015481525050613ab2565b10151561150a5760008260040154111561145e5760018260040154038260040181905550611509565b6000826003015411156114805760018260030154038260030181905550611508565b6000826005015411156114a25760018260050154038260050181905550611507565b6000826006015411156114c45760018260060154038260060181905550611506565b6000826007015411156114e65760018260070154038260070181905550611505565b60008260090154111561150457600182600901540382600901819055505b5b5b5b5b5b5b5b50505050565b6000600980549050905090565b6301ffc9a77c01000000000000000000000000000000000000000000000000000000000281565b806115503382613ae6565b151561155b57600080fd5b600073ffffffffffffffffffffffffffffffffffffffff168473ffffffffffffffffffffffffffffffffffffffff161415151561159757600080fd5b600073ffffffffffffffffffffffffffffffffffffffff168373ffffffffffffffffffffffffffffffffffffffff16141515156115d357600080fd5b6115dd8483613b7b565b6115e78483613c7e565b6115f18383613e96565b818373ffffffffffffffffffffffffffffffffffffffff168573ffffffffffffffffffffffffffffffffffffffff167fddf252ad1be2c89b69c2b068fc378daa952ba7f163c4a11628f55a4df523b3ef60405160405180910390a450505050565b600080600080853373ffffffffffffffffffffffffffffffffffffffff16611679826121c1565b73ffffffffffffffffffffffffffffffffffffffff1614151561169b57600080fd5b600c80549050871015156116ae57600080fd5b600c80549050861015156116c157600080fd5b600c878154811015156116d057fe5b90600052602060002090600d02019450600c868154811015156116ef57fe5b90600052602060002090600d020193506101f485600c01541015151561171457600080fd5b6101f484600c01541015151561172957600080fd5b61176c856003015486600401548760050154886006015489600701548a600801548b600901546001600360014303406001900481151561176557fe5b06016132ef565b92506117b18460030154856004015486600501548760060154886007015489600801548a60090154600160036001430340600190048115156117aa57fe5b06016132ef565b915081831015156117e3576101f485600c01540185600c01819055506101f484600c01540384600c0181905550611806565b6101f484600c01540184600c01819055506101f485600c01540385600c01819055505b4285600a0160006101000a81548167ffffffffffffffff021916908367ffffffffffffffff16021790555050505050505050565b60006118458361223f565b8210151561185257600080fd5b600760008473ffffffffffffffffffffffffffffffffffffffff1673ffffffffffffffffffffffffffffffffffffffff1681526020019081526020016000208281548110151561189e57fe5b9060005260206000200154905092915050565b806118bc3382613ae6565b15156118c757600080fd5b6118e38484846020604051908101604052806000815250613028565b50505050565b6000806001600084815260200190815260200160002060009054906101000a900473ffffffffffffffffffffffffffffffffffffffff169050600073ffffffffffffffffffffffffffffffffffffffff168173ffffffffffffffffffffffffffffffffffffffff161415915050919050565b6000611965611511565b8210151561197257600080fd5b60098281548110151561198157fe5b90600052602060002001549050919050565b600080823373ffffffffffffffffffffffffffffffffffffffff166119b7826121c1565b73ffffffffffffffffffffffffffffffffffffffff161415156119d957600080fd5b60019250600c80549050841015156119f057600080fd5b600c848154811015156119ff57fe5b90600052602060002090600d020191506201518082600a0160009054906101000a900467ffffffffffffffff1667ffffffffffffffff1642031180611a48575060008260020154115b1515611a5357600080fd5b6201518082600a0160009054906101000a900467ffffffffffffffff1667ffffffffffffffff164203811515611a8557fe5b04826002015401826002018190555082826002015410151515611aa757600080fd5b8282600201540382600201819055504282600a0160006101000a81548167ffffffffffffffff021916908367ffffffffffffffff1602179055506103e882600c01540182600c0181905550600a8260050154108015611b0e57506004611b0b61381f565b11155b15611d7b57600182600501540182600501819055506028611ca5836101a06040519081016040529081600082018054600181600116156101000203166002900480601f016020809104026020016040519081016040528092919081815260200182805460018160011615610100020316600290048015611bcf5780601f10611ba457610100808354040283529160200191611bcf565b820191906000526020600020905b815481529060010190602001808311611bb257829003601f168201915b505050505081526020016001820160009054906101000a900467ffffffffffffffff1667ffffffffffffffff1667ffffffffffffffff1681526020016002820154815260200160038201548152602001600482015481526020016005820154815260200160068201548152602001600782015481526020016008820154815260200160098201548152602001600a820160009054906101000a900467ffffffffffffffff1667ffffffffffffffff1667ffffffffffffffff168152602001600b8201548152602001600c82015481525050613ab2565b101515611d7a57600082600601541115611cce5760018260060154038260060181905550611d79565b600082600301541115611cf05760018260030154038260030181905550611d78565b600082600401541115611d125760018260040154038260040181905550611d77565b600082600701541115611d345760018260070154038260070181905550611d76565b600082600801541115611d565760018260080154038260080181905550611d75565b600082600901541115611d7457600182600901540382600901819055505b5b5b5b5b5b5b5b50505050565b6000806001600a600143034060019004811515611d9a57fe5b0601905083915080831015611db457607d84029150611dcc565b80831115611dc757604b84029150611dcb565b8391505b5b5092915050565b600080823373ffffffffffffffffffffffffffffffffffffffff16611df7826121c1565b73ffffffffffffffffffffffffffffffffffffffff16141515611e1957600080fd5b60019250600c8054905084101515611e3057600080fd5b600c84815481101515611e3f57fe5b90600052602060002090600d020191506201518082600a0160009054906101000a900467ffffffffffffffff1667ffffffffffffffff1642031180611e88575060008260020154115b1515611e9357600080fd5b6201518082600a0160009054906101000a900467ffffffffffffffff1667ffffffffffffffff164203811515611ec557fe5b04826002015401826002018190555082826002015410151515611ee757600080fd5b8282600201540382600201819055504282600a0160006101000a81548167ffffffffffffffff021916908367ffffffffffffffff1602179055506103e882600c01540182600c0181905550600a8260060154108015611f4e57506004611f4b61381f565b11155b156121bb576001826006015401826006018190555060286120e5836101a06040519081016040529081600082018054600181600116156101000203166002900480601f01602080910402602001604051908101604052809291908181526020018280546001816001161561010002031660029004801561200f5780601f10611fe45761010080835404028352916020019161200f565b820191906000526020600020905b815481529060010190602001808311611ff257829003601f168201915b505050505081526020016001820160009054906101000a900467ffffffffffffffff1667ffffffffffffffff1667ffffffffffffffff1681526020016002820154815260200160038201548152602001600482015481526020016005820154815260200160068201548152602001600782015481526020016008820154815260200160098201548152602001600a820160009054906101000a900467ffffffffffffffff1667ffffffffffffffff1667ffffffffffffffff168152602001600b8201548152602001600c82015481525050613ab2565b1015156121ba5760008260050154111561210e57600182600501540382600501819055506121b9565b60008260030154111561213057600182600301540382600301819055506121b8565b60008260040154111561215257600182600401540382600401819055506121b7565b60008260070154111561217457600182600701540382600701819055506121b6565b60008260080154111561219657600182600801540382600801819055506121b5565b6000826009015411156121b457600182600901540382600901819055505b5b5b5b5b5b5b5b50505050565b6000806001600084815260200190815260200160002060009054906101000a900473ffffffffffffffffffffffffffffffffffffffff169050600073ffffffffffffffffffffffffffffffffffffffff168173ffffffffffffffffffffffffffffffffffffffff161415151561223657600080fd5b80915050919050565b60008073ffffffffffffffffffffffffffffffffffffffff168273ffffffffffffffffffffffffffffffffffffffff161415151561227c57600080fd5b600360008373ffffffffffffffffffffffffffffffffffffffff1673ffffffffffffffffffffffffffffffffffffffff168152602001908152602001600020549050919050565b600d60009054906101000a900473ffffffffffffffffffffffffffffffffffffffff1681565b600080823373ffffffffffffffffffffffffffffffffffffffff1661230d826121c1565b73ffffffffffffffffffffffffffffffffffffffff1614151561232f57600080fd5b60019250600c805490508410151561234657600080fd5b600c8481548110151561235557fe5b90600052602060002090600d020191506201518082600a0160009054906101000a900467ffffffffffffffff1667ffffffffffffffff164203118061239e575060008260020154115b15156123a957600080fd5b6201518082600a0160009054906101000a900467ffffffffffffffff1667ffffffffffffffff1642038115156123db57fe5b048260020154018260020181905550828260020154101515156123fd57600080fd5b8282600201540382600201819055504282600a0160006101000a81548167ffffffffffffffff021916908367ffffffffffffffff1602179055506103e882600c01540182600c0181905550600a82600401541080156124645750600461246161381f565b11155b156126d1576001826004015401826004018190555060286125fb836101a06040519081016040529081600082018054600181600116156101000203166002900480601f0160208091040260200160405190810160405280929190818152602001828054600181600116156101000203166002900480156125255780601f106124fa57610100808354040283529160200191612525565b820191906000526020600020905b81548152906001019060200180831161250857829003601f168201915b505050505081526020016001820160009054906101000a900467ffffffffffffffff1667ffffffffffffffff1667ffffffffffffffff1681526020016002820154815260200160038201548152602001600482015481526020016005820154815260200160068201548152602001600782015481526020016008820154815260200160098201548152602001600a820160009054906101000a900467ffffffffffffffff1667ffffffffffffffff1667ffffffffffffffff168152602001600b8201548152602001600c82015481525050613ab2565b1015156126d05760008260090154111561262457600182600901540382600901819055506126cf565b60008260030154111561264657600182600301540382600301819055506126ce565b60008260050154111561266857600182600501540382600501819055506126cd565b60008260060154111561268a57600182600601540382600601819055506126cc565b6000826007015411156126ac57600182600701540382600701819055506126cb565b6000826008015411156126ca57600182600801540382600801819055505b5b5b5b5b5b5b5b50505050565b6040805190810160405280600281526020017f4f5000000000000000000000000000000000000000000000000000000000000081525081565b3373ffffffffffffffffffffffffffffffffffffffff168273ffffffffffffffffffffffffffffffffffffffff161415151561274b57600080fd5b80600460003373ffffffffffffffffffffffffffffffffffffffff1673ffffffffffffffffffffffffffffffffffffffff16815260200190815260200160002060008473ffffffffffffffffffffffffffffffffffffffff1673ffffffffffffffffffffffffffffffffffffffff16815260200190815260200160002060006101000a81548160ff0219169083151502179055508173ffffffffffffffffffffffffffffffffffffffff163373ffffffffffffffffffffffffffffffffffffffff167f17307eab39ab6107e8899845ad3d59bd9653f200f220920489ca2b5937696c3183604051808215151515815260200191505060405180910390a35050565b600080823373ffffffffffffffffffffffffffffffffffffffff16612870826121c1565b73ffffffffffffffffffffffffffffffffffffffff1614151561289257600080fd5b60019250600c80549050841015156128a957600080fd5b600c848154811015156128b857fe5b90600052602060002090600d020191506201518082600a0160009054906101000a900467ffffffffffffffff1667ffffffffffffffff1642031180612901575060008260020154115b151561290c57600080fd5b6201518082600a0160009054906101000a900467ffffffffffffffff1667ffffffffffffffff16420381151561293e57fe5b0482600201540182600201819055508282600201541015151561296057600080fd5b8282600201540382600201819055504282600a0160006101000a81548167ffffffffffffffff021916908367ffffffffffffffff1602179055506103e882600c01540182600c0181905550600a82600801541080156129c7575060046129c461381f565b11155b15612c3457600182600801540182600801819055506028612b5e836101a06040519081016040529081600082018054600181600116156101000203166002900480601f016020809104026020016040519081016040528092919081815260200182805460018160011615610100020316600290048015612a885780601f10612a5d57610100808354040283529160200191612a88565b820191906000526020600020905b815481529060010190602001808311612a6b57829003601f168201915b505050505081526020016001820160009054906101000a900467ffffffffffffffff1667ffffffffffffffff1667ffffffffffffffff1681526020016002820154815260200160038201548152602001600482015481526020016005820154815260200160068201548152602001600782015481526020016008820154815260200160098201548152602001600a820160009054906101000a900467ffffffffffffffff1667ffffffffffffffff1667ffffffffffffffff168152602001600b8201548152602001600c82015481525050613ab2565b101515612c3357600082600401541115612b875760018260040154038260040181905550612c32565b600082600301541115612ba95760018260030154038260030181905550612c31565b600082600501541115612bcb5760018260050154038260050181905550612c30565b600082600601541115612bed5760018260060154038260060181905550612c2f565b600082600701541115612c0f5760018260070154038260070181905550612c2e565b600082600901541115612c2d57600182600901540382600901819055505b5b5b5b5b5b5b5b50505050565b600080823373ffffffffffffffffffffffffffffffffffffffff16612c5e826121c1565b73ffffffffffffffffffffffffffffffffffffffff16141515612c8057600080fd5b60019250600c8054905084101515612c9757600080fd5b600c84815481101515612ca657fe5b90600052602060002090600d020191506201518082600a0160009054906101000a900467ffffffffffffffff1667ffffffffffffffff1642031180612cef575060008260020154115b1515612cfa57600080fd5b6201518082600a0160009054906101000a900467ffffffffffffffff1667ffffffffffffffff164203811515612d2c57fe5b04826002015401826002018190555082826002015410151515612d4e57600080fd5b8282600201540382600201819055504282600a0160006101000a81548167ffffffffffffffff021916908367ffffffffffffffff1602179055506103e882600c01540182600c0181905550600a8260070154108015612db557506004612db261381f565b11155b1561302257600182600701540182600701819055506028612f4c836101a06040519081016040529081600082018054600181600116156101000203166002900480601f016020809104026020016040519081016040528092919081815260200182805460018160011615610100020316600290048015612e765780601f10612e4b57610100808354040283529160200191612e76565b820191906000526020600020905b815481529060010190602001808311612e5957829003601f168201915b505050505081526020016001820160009054906101000a900467ffffffffffffffff1667ffffffffffffffff1667ffffffffffffffff1681526020016002820154815260200160038201548152602001600482015481526020016005820154815260200160068201548152602001600782015481526020016008820154815260200160098201548152602001600a820160009054906101000a900467ffffffffffffffff1667ffffffffffffffff1667ffffffffffffffff168152602001600b8201548152602001600c82015481525050613ab2565b10151561302157600082600301541115612f755760018260030154038260030181905550613020565b600082600401541115612f97576001826004015403826004018190555061301f565b600082600501541115612fb9576001826005015403826005018190555061301e565b600082600601541115612fdb576001826006015403826006018190555061301d565b600082600801541115612ffd576001826008015403826008018190555061301c565b60008260090154111561301b57600182600901540382600901819055505b5b5b5b5b5b5b5b50505050565b816130333382613ae6565b151561303e57600080fd5b613049858585611545565b61305585858585613f6d565b151561306057600080fd5b5050505050565b6060613072826118e9565b151561307d57600080fd5b600b60008381526020019081526020016000208054600181600116156101000203166002900480601f0160208091040260200160405190810160405280929190818152602001828054600181600116156101000203166002900480156131245780601f106130f957610100808354040283529160200191613124565b820191906000526020600020905b81548152906001019060200180831161310757829003601f168201915b50505050509050919050565b6000600c805490509050601e828486888a8c8e0101010101011115151561315657600080fd5b600c6101a0604051908101604052808c81526020014267ffffffffffffffff1681526020018881526020018a81526020018981526020018881526020018781526020018681526020018581526020018481526020014267ffffffffffffffff1681526020016000815260200160008152509080600181540180825580915050906001820390600052602060002090600d020160009091929091909150600082015181600001908051906020019061320e92919061455d565b5060208201518160010160006101000a81548167ffffffffffffffff021916908367ffffffffffffffff16021790555060408201518160020155606082015181600301556080820151816004015560a0820151816005015560c0820151816006015560e082015181600701556101008201518160080155610120820151816009015561014082015181600a0160006101000a81548167ffffffffffffffff021916908367ffffffffffffffff16021790555061016082015181600b015561018082015181600c01555050506132e3898261418f565b50505050505050505050565b600060018214156133275761332060028502600087026000890260048b0260008d0260048f02010101010184611d81565b9050613387565b600282141561335d5761335660048502600287026000890260008b0260048d0260008f02010101010184611d81565b9050613386565b61338360008502600387026006890260008b0260008d0260018f02010101010184611d81565b90505b5b80905098975050505050505050565b600080823373ffffffffffffffffffffffffffffffffffffffff166133ba826121c1565b73ffffffffffffffffffffffffffffffffffffffff161415156133dc57600080fd5b60019250600c80549050841015156133f357600080fd5b600c8481548110151561340257fe5b90600052602060002090600d020191506201518082600a0160009054906101000a900467ffffffffffffffff1667ffffffffffffffff164203118061344b575060008260020154115b151561345657600080fd5b6201518082600a0160009054906101000a900467ffffffffffffffff1667ffffffffffffffff16420381151561348857fe5b048260020154018260020181905550828260020154101515156134aa57600080fd5b8282600201540382600201819055504282600a0160006101000a81548167ffffffffffffffff021916908367ffffffffffffffff1602179055506103e882600c01540182600c0181905550600a82600301541080156135115750600461350e61381f565b11155b1561377e576001826003015401826003018190555060286136a8836101a06040519081016040529081600082018054600181600116156101000203166002900480601f0160208091040260200160405190810160405280929190818152602001828054600181600116156101000203166002900480156135d25780601f106135a7576101008083540402835291602001916135d2565b820191906000526020600020905b8154815290600101906020018083116135b557829003601f168201915b505050505081526020016001820160009054906101000a900467ffffffffffffffff1667ffffffffffffffff1667ffffffffffffffff1681526020016002820154815260200160038201548152602001600482015481526020016005820154815260200160068201548152602001600782015481526020016008820154815260200160098201548152602001600a820160009054906101000a900467ffffffffffffffff1667ffffffffffffffff1667ffffffffffffffff168152602001600b8201548152602001600c82015481525050613ab2565b10151561377d576000826007015411156136d1576001826007015403826007018190555061377c565b6000826004015411156136f3576001826004015403826004018190555061377b565b600082600501541115613715576001826005015403826005018190555061377a565b6000826006015411156137375760018260060154038260060181905550613779565b6000826008015411156137595760018260080154038260080181905550613778565b60008260090154111561377757600182600901540382600901819055505b5b5b5b5b5b5b5b50505050565b6201518081565b6000600460008473ffffffffffffffffffffffffffffffffffffffff1673ffffffffffffffffffffffffffffffffffffffff16815260200190815260200160002060008373ffffffffffffffffffffffffffffffffffffffff1673ffffffffffffffffffffffffffffffffffffffff16815260200190815260200160002060009054906101000a900460ff16905092915050565b600080613a1343613a054233604051602001808273ffffffffffffffffffffffffffffffffffffffff1673ffffffffffffffffffffffffffffffffffffffff166c010000000000000000000000000281526014019150506040516020818303038152906040526040518082805190602001908083835b6020831015156138ba5780518252602082019150602081019050602083039250613895565b6001836020036101000a0380198251168184511680821785525050505050509050019150506040518091039020600190048115156138f457fe5b046139f7456139e94241604051602001808273ffffffffffffffffffffffffffffffffffffffff1673ffffffffffffffffffffffffffffffffffffffff166c010000000000000000000000000281526014019150506040516020818303038152906040526040518082805190602001908083835b60208310151561398d5780518252602082019150602081019050602083039250613968565b6001836020036101000a0380198251168184511680821785525050505050509050019150506040518091039020600190048115156139c757fe5b046139db44426141e690919063ffffffff16565b6141e690919063ffffffff16565b6141e690919063ffffffff16565b6141e690919063ffffffff16565b6141e690919063ffffffff16565b604051602001808281526020019150506040516020818303038152906040526040518082805190602001908083835b602083101515613a675780518252602082019150602081019050602083039250613a42565b6001836020036101000a03801982511681845116808217855250505050505090500191505060405180910390206001900490506103e88082811515613aa857fe5b0402810391505090565b60008161012001518261010001518360e001518460c001518560a00151866080015187606001510101010101019050919050565b600080613af2836121c1565b90508073ffffffffffffffffffffffffffffffffffffffff168473ffffffffffffffffffffffffffffffffffffffff161480613b6157508373ffffffffffffffffffffffffffffffffffffffff16613b4984610e6c565b73ffffffffffffffffffffffffffffffffffffffff16145b80613b725750613b71818561378b565b5b91505092915050565b8173ffffffffffffffffffffffffffffffffffffffff16613b9b826121c1565b73ffffffffffffffffffffffffffffffffffffffff16141515613bbd57600080fd5b600073ffffffffffffffffffffffffffffffffffffffff166002600083815260200190815260200160002060009054906101000a900473ffffffffffffffffffffffffffffffffffffffff1673ffffffffffffffffffffffffffffffffffffffff16141515613c7a5760006002600083815260200190815260200160002060006101000a81548173ffffffffffffffffffffffffffffffffffffffff021916908373ffffffffffffffffffffffffffffffffffffffff1602179055505b5050565b6000806000613c8d8585614202565b60086000858152602001908152602001600020549250613cf96001600760008873ffffffffffffffffffffffffffffffffffffffff1673ffffffffffffffffffffffffffffffffffffffff1681526020019081526020016000208054905061433190919063ffffffff16565b9150600760008673ffffffffffffffffffffffffffffffffffffffff1673ffffffffffffffffffffffffffffffffffffffff16815260200190815260200160002082815481101515613d4757fe5b9060005260206000200154905080600760008773ffffffffffffffffffffffffffffffffffffffff1673ffffffffffffffffffffffffffffffffffffffff16815260200190815260200160002084815481101515613da157fe5b90600052602060002001819055506000600760008773ffffffffffffffffffffffffffffffffffffffff1673ffffffffffffffffffffffffffffffffffffffff16815260200190815260200160002083815481101515613dfd57fe5b9060005260206000200181905550600760008673ffffffffffffffffffffffffffffffffffffffff1673ffffffffffffffffffffffffffffffffffffffff168152602001908152602001600020805480919060019003613e5d91906145dd565b50600060086000868152602001908152602001600020819055508260086000838152602001908152602001600020819055505050505050565b6000613ea2838361434a565b600760008473ffffffffffffffffffffffffffffffffffffffff1673ffffffffffffffffffffffffffffffffffffffff168152602001908152602001600020805490509050600760008473ffffffffffffffffffffffffffffffffffffffff1673ffffffffffffffffffffffffffffffffffffffff168152602001908152602001600020829080600181540180825580915050906001820390600052602060002001600090919290919091505550806008600084815260200190815260200160002081905550505050565b600080613f8f8573ffffffffffffffffffffffffffffffffffffffff166144a4565b1515613f9e5760019150614186565b8473ffffffffffffffffffffffffffffffffffffffff1663150b7a02338887876040518563ffffffff167c0100000000000000000000000000000000000000000000000000000000028152600401808573ffffffffffffffffffffffffffffffffffffffff1673ffffffffffffffffffffffffffffffffffffffff1681526020018473ffffffffffffffffffffffffffffffffffffffff1673ffffffffffffffffffffffffffffffffffffffff16815260200183815260200180602001828103825283818151815260200191508051906020019080838360005b83811015614093578082015181840152602081019050614078565b50505050905090810190601f1680156140c05780820380516001836020036101000a031916815260200191505b5095505050505050602060405180830381600087803b1580156140e257600080fd5b505af11580156140f6573d6000803e3d6000fd5b505050506040513d602081101561410c57600080fd5b8101908080519060200190929190505050905063150b7a027c0100000000000000000000000000000000000000000000000000000000027bffffffffffffffffffffffffffffffffffffffffffffffffffffffff1916817bffffffffffffffffffffffffffffffffffffffffffffffffffffffff19161491505b50949350505050565b61419982826144b7565b600980549050600a60008381526020019081526020016000208190555060098190806001815401808255809150509060018203906000526020600020016000909192909190915055505050565b600081830190508281101515156141f957fe5b80905092915050565b8173ffffffffffffffffffffffffffffffffffffffff16614222826121c1565b73ffffffffffffffffffffffffffffffffffffffff1614151561424457600080fd5b6142976001600360008573ffffffffffffffffffffffffffffffffffffffff1673ffffffffffffffffffffffffffffffffffffffff1681526020019081526020016000205461433190919063ffffffff16565b600360008473ffffffffffffffffffffffffffffffffffffffff1673ffffffffffffffffffffffffffffffffffffffff1681526020019081526020016000208190555060006001600083815260200190815260200160002060006101000a81548173ffffffffffffffffffffffffffffffffffffffff021916908373ffffffffffffffffffffffffffffffffffffffff1602179055505050565b600082821115151561433f57fe5b818303905092915050565b600073ffffffffffffffffffffffffffffffffffffffff166001600083815260200190815260200160002060009054906101000a900473ffffffffffffffffffffffffffffffffffffffff1673ffffffffffffffffffffffffffffffffffffffff161415156143b857600080fd5b816001600083815260200190815260200160002060006101000a81548173ffffffffffffffffffffffffffffffffffffffff021916908373ffffffffffffffffffffffffffffffffffffffff16021790555061445d6001600360008573ffffffffffffffffffffffffffffffffffffffff1673ffffffffffffffffffffffffffffffffffffffff168152602001908152602001600020546141e690919063ffffffff16565b600360008473ffffffffffffffffffffffffffffffffffffffff1673ffffffffffffffffffffffffffffffffffffffff168152602001908152602001600020819055505050565b600080823b905060008111915050919050565b600073ffffffffffffffffffffffffffffffffffffffff168273ffffffffffffffffffffffffffffffffffffffff16141515156144f357600080fd5b6144fd8282613e96565b808273ffffffffffffffffffffffffffffffffffffffff16600073ffffffffffffffffffffffffffffffffffffffff167fddf252ad1be2c89b69c2b068fc378daa952ba7f163c4a11628f55a4df523b3ef60405160405180910390a45050565b828054600181600116156101000203166002900490600052602060002090601f016020900481019282601f1061459e57805160ff19168380011785556145cc565b828001600101855582156145cc579182015b828111156145cb5782518255916020019190600101906145b0565b5b5090506145d99190614609565b5090565b815481835581811115614604578183600052602060002091820191016146039190614609565b5b505050565b61462b91905b8082111561462757600081600090555060010161460f565b5090565b905600a165627a7a72305820c11233f0e0f95fd9bf511efa9387a4a460bde0053e9ecca5251c3991f444c2980029",
  "source": "pragma solidity ^0.4.24;\n\nimport './ERC721Token.sol';\n\ncontract CitizenSim is ERC721Token {\n    string public constant name = \"OfficePolitics\";\n    string public constant symbol = \"OP\";\n\n    struct Citizen {\n        string name;\n        uint64 birthTime;\n        uint stamina;\n        uint strength;\n        uint perception;\n        uint endurance;\n        uint charisma;\n        uint intelligence;\n        uint agility;\n        uint luck;\n        uint64 lastExecutionTime;\n        uint totalTask;\n        uint256 resources;\n    }\n    \n    \n    //TODO: Make Referral Line\n    //get % creation fee\n    //extra money\n    \n    //Battle Mechanism\n    //TODO: Random Encounter\n    \n    \n    Citizen[] public citizens;\n    address public owner;\n    uint public constant STAMINA_REGENRATION = 1 days;\n    \n    constructor() public\n        ERC721Token(name, symbol)\n    {\n        owner = msg.sender;\n    }\n    \n    function createCitizen(string _name, address _to, uint _strength, uint _perception, uint _endurance, uint _charisma, uint _intelligence, uint _agility, uint _luck) public {\n        //TODO: Charge 0.01 ETH per creation , by pulic\n        //require(msg.sender == owner);\n        uint id = citizens.length;\n        //Check sum of all stat <=30\n        require (_strength + _perception + _endurance + _charisma + _intelligence + _agility + _luck <= 30);\n        citizens.push(Citizen(_name, uint64(now), _endurance, _strength, _perception, _endurance, _charisma, _intelligence, _agility, _luck, uint64(now), 0,0));\n        _mint(_to,id);\n    }\n    \n    function Logistics(uint _citizenId) onlyOwnerOf(_citizenId) public {\n        uint stamina_base_cost = 1;\n        \n        require(_citizenId < citizens.length);\n        \n        Citizen storage myCitizen = citizens[_citizenId];\n        require(((now - myCitizen.lastExecutionTime) > STAMINA_REGENRATION) || myCitizen.stamina > 0);\n        myCitizen.stamina = myCitizen.stamina + ((now - myCitizen.lastExecutionTime) / STAMINA_REGENRATION);\n        require(myCitizen.stamina >= stamina_base_cost);\n        \n        // - stamina\n        myCitizen.stamina = myCitizen.stamina - stamina_base_cost;\n        myCitizen.lastExecutionTime = uint64(now);\n        \n        // Add resources\n        myCitizen.resources = myCitizen.resources + 1000;\n        \n        // 5% of chance to increase stat in working\n        if (myCitizen.strength < 10 && random() <= 4 )\n        {\n            //true\n            myCitizen.strength = myCitizen.strength + 1;\n            if (totalStat(myCitizen) >= 40)\n            {\n                if (myCitizen.intelligence > 0) { myCitizen.intelligence = myCitizen.intelligence - 1; }\n                else if (myCitizen.perception > 0) { myCitizen.perception = myCitizen.perception - 1; }\n                else if (myCitizen.endurance > 0) { myCitizen.endurance = myCitizen.endurance - 1; }\n                else if (myCitizen.charisma > 0) { myCitizen.charisma = myCitizen.charisma - 1; }\n                else if (myCitizen.agility > 0) { myCitizen.agility = myCitizen.agility - 1; }\n                else if (myCitizen.luck > 0) { myCitizen.luck = myCitizen.luck - 1; }\n            }\n        }\n    }\n    \n    function BusinessDevelopment(uint _citizenId) onlyOwnerOf(_citizenId) public {\n        uint stamina_base_cost = 1;\n        \n        require(_citizenId < citizens.length);\n        \n        Citizen storage myCitizen = citizens[_citizenId];\n        require(((now - myCitizen.lastExecutionTime) > STAMINA_REGENRATION) || myCitizen.stamina > 0);\n        myCitizen.stamina = myCitizen.stamina + ((now - myCitizen.lastExecutionTime) / STAMINA_REGENRATION);\n        require(myCitizen.stamina >= stamina_base_cost);\n        \n        // - stamina\n        myCitizen.stamina = myCitizen.stamina - stamina_base_cost;\n        myCitizen.lastExecutionTime = uint64(now);\n        \n        // Add resources\n        myCitizen.resources = myCitizen.resources + 1000;\n        \n        // 5% of chance to increase stat in working\n        if (myCitizen.perception < 10 && random() <= 4 )\n        {\n            //true\n            myCitizen.perception = myCitizen.perception + 1;\n            if (totalStat(myCitizen) >= 40)\n            {\n                if (myCitizen.luck > 0) { myCitizen.luck = myCitizen.luck - 1; }\n                else if (myCitizen.strength > 0) { myCitizen.strength = myCitizen.strength - 1; }\n                else if (myCitizen.endurance > 0) { myCitizen.endurance = myCitizen.endurance - 1; }\n                else if (myCitizen.charisma > 0) { myCitizen.charisma = myCitizen.charisma - 1; }\n                else if (myCitizen.intelligence > 0) { myCitizen.intelligence = myCitizen.intelligence - 1; }\n                else if (myCitizen.agility > 0) { myCitizen.agility = myCitizen.agility - 1; }\n            }\n        }\n    }\n    \n    function Accounting(uint _citizenId) onlyOwnerOf(_citizenId) public {\n        uint stamina_base_cost = 1;\n        \n        require(_citizenId < citizens.length);\n        \n        Citizen storage myCitizen = citizens[_citizenId];\n        require(((now - myCitizen.lastExecutionTime) > STAMINA_REGENRATION) || myCitizen.stamina > 0);\n        myCitizen.stamina = myCitizen.stamina + ((now - myCitizen.lastExecutionTime) / STAMINA_REGENRATION);\n        require(myCitizen.stamina >= stamina_base_cost);\n        \n        // - stamina\n        myCitizen.stamina = myCitizen.stamina - stamina_base_cost;\n        myCitizen.lastExecutionTime = uint64(now);\n        \n        // Add resources\n        myCitizen.resources = myCitizen.resources + 1000;\n        \n        // 5% of chance to increase stat in working\n        if (myCitizen.endurance < 10 && random() <= 4 )\n        {\n            //true\n            myCitizen.endurance = myCitizen.endurance + 1;\n            if (totalStat(myCitizen) >= 40)\n            {\n                if (myCitizen.charisma > 0) { myCitizen.charisma = myCitizen.charisma - 1; }\n                else if (myCitizen.strength > 0) { myCitizen.strength = myCitizen.strength - 1; }\n                else if (myCitizen.perception > 0) { myCitizen.perception = myCitizen.perception - 1; }\n                else if (myCitizen.intelligence > 0) { myCitizen.intelligence = myCitizen.intelligence - 1; }\n                else if (myCitizen.agility > 0) { myCitizen.agility = myCitizen.agility - 1; }\n                else if (myCitizen.luck > 0) { myCitizen.luck = myCitizen.luck - 1; }\n            }\n        }\n    }\n    \n    function Marketing(uint _citizenId) onlyOwnerOf(_citizenId) public {\n        uint stamina_base_cost = 1;\n        \n        require(_citizenId < citizens.length);\n        \n        Citizen storage myCitizen = citizens[_citizenId];\n        require(((now - myCitizen.lastExecutionTime) > STAMINA_REGENRATION) || myCitizen.stamina > 0);\n        myCitizen.stamina = myCitizen.stamina + ((now - myCitizen.lastExecutionTime) / STAMINA_REGENRATION);\n        require(myCitizen.stamina >= stamina_base_cost);\n        \n        // - stamina\n        myCitizen.stamina = myCitizen.stamina - stamina_base_cost;\n        myCitizen.lastExecutionTime = uint64(now);\n        \n        // Add resources\n        myCitizen.resources = myCitizen.resources + 1000;\n        \n        // 5% of chance to increase stat in working\n        if (myCitizen.charisma < 10 && random() <= 4 )\n        {\n            //true\n            myCitizen.charisma = myCitizen.charisma + 1;\n            if (totalStat(myCitizen) >= 40)\n            {\n                if (myCitizen.endurance > 0) { myCitizen.endurance = myCitizen.endurance - 1; }\n                else if (myCitizen.strength > 0) { myCitizen.strength = myCitizen.strength - 1; }\n                else if (myCitizen.perception > 0) { myCitizen.perception = myCitizen.perception - 1; }\n                else if (myCitizen.intelligence > 0) { myCitizen.intelligence = myCitizen.intelligence - 1; }\n                else if (myCitizen.agility > 0) { myCitizen.agility = myCitizen.agility - 1; }\n                else if (myCitizen.luck > 0) { myCitizen.luck = myCitizen.luck - 1; }\n            }\n        }\n    }\n    \n    function IT(uint _citizenId) onlyOwnerOf(_citizenId) public {\n        uint stamina_base_cost = 1;\n        \n        require(_citizenId < citizens.length);\n        \n        Citizen storage myCitizen = citizens[_citizenId];\n        require(((now - myCitizen.lastExecutionTime) > STAMINA_REGENRATION) || myCitizen.stamina > 0);\n        myCitizen.stamina = myCitizen.stamina + ((now - myCitizen.lastExecutionTime) / STAMINA_REGENRATION);\n        require(myCitizen.stamina >= stamina_base_cost);\n        \n        // - stamina\n        myCitizen.stamina = myCitizen.stamina - stamina_base_cost;\n        myCitizen.lastExecutionTime = uint64(now);\n        \n        // Add resources\n        myCitizen.resources = myCitizen.resources + 1000;\n        \n        // 5% of chance to increase stat in working\n        if (myCitizen.intelligence < 10 && random() <= 4 )\n        {\n            //true\n            myCitizen.intelligence = myCitizen.intelligence + 1;\n            if (totalStat(myCitizen) >= 40)\n            {\n                if (myCitizen.strength > 0) { myCitizen.strength = myCitizen.strength - 1; }\n                else if (myCitizen.perception > 0) { myCitizen.perception = myCitizen.perception - 1; }\n                else if (myCitizen.endurance > 0) { myCitizen.endurance = myCitizen.endurance - 1; }\n                else if (myCitizen.charisma > 0) { myCitizen.charisma = myCitizen.charisma - 1; }\n                else if (myCitizen.agility > 0) { myCitizen.agility = myCitizen.agility - 1; }\n                else if (myCitizen.luck > 0) { myCitizen.luck = myCitizen.luck - 1; }\n            }\n        }\n    }\n    \n    function Security(uint _citizenId) onlyOwnerOf(_citizenId) public {\n        uint stamina_base_cost = 1;\n        \n        require(_citizenId < citizens.length);\n        \n        Citizen storage myCitizen = citizens[_citizenId];\n        require(((now - myCitizen.lastExecutionTime) > STAMINA_REGENRATION) || myCitizen.stamina > 0);\n        myCitizen.stamina = myCitizen.stamina + ((now - myCitizen.lastExecutionTime) / STAMINA_REGENRATION);\n        require(myCitizen.stamina >= stamina_base_cost);\n        \n        // - stamina\n        myCitizen.stamina = myCitizen.stamina - stamina_base_cost;\n        myCitizen.lastExecutionTime = uint64(now);\n        \n        // Add resources\n        myCitizen.resources = myCitizen.resources + 1000;\n        \n        // 5% of chance to increase stat in working\n        if (myCitizen.agility < 10 && random() <= 4 )\n        {\n            //true\n            myCitizen.agility = myCitizen.agility + 1;\n            if (totalStat(myCitizen) >= 40)\n            {\n                if (myCitizen.perception > 0) { myCitizen.perception = myCitizen.perception - 1; }\n                else if (myCitizen.strength > 0) { myCitizen.strength = myCitizen.strength - 1; }\n                else if (myCitizen.endurance > 0) { myCitizen.endurance = myCitizen.endurance - 1; }\n                else if (myCitizen.charisma > 0) { myCitizen.charisma = myCitizen.charisma - 1; }\n                else if (myCitizen.intelligence > 0) { myCitizen.intelligence = myCitizen.intelligence - 1; }\n                else if (myCitizen.luck > 0) { myCitizen.luck = myCitizen.luck - 1; }\n            }\n        }\n    }\n    \n    function HR(uint _citizenId) onlyOwnerOf(_citizenId) public {\n        uint stamina_base_cost = 1;\n        \n        require(_citizenId < citizens.length);\n        \n        Citizen storage myCitizen = citizens[_citizenId];\n        require(((now - myCitizen.lastExecutionTime) > STAMINA_REGENRATION) || myCitizen.stamina > 0);\n        myCitizen.stamina = myCitizen.stamina + ((now - myCitizen.lastExecutionTime) / STAMINA_REGENRATION);\n        require(myCitizen.stamina >= stamina_base_cost);\n        \n        // - stamina\n        myCitizen.stamina = myCitizen.stamina - stamina_base_cost;\n        myCitizen.lastExecutionTime = uint64(now);\n        \n        // Add resources\n        myCitizen.resources = myCitizen.resources + 1000;\n        \n        // 5% of chance to increase stat in working\n        if (myCitizen.agility < 10 && random() <= 4 )\n        {\n            //true\n            myCitizen.agility = myCitizen.agility + 1;\n            if (totalStat(myCitizen) >= 40)\n            {\n                if (myCitizen.perception > 0) { myCitizen.perception = myCitizen.perception - 1; }\n                else if (myCitizen.strength > 0) { myCitizen.strength = myCitizen.strength - 1; }\n                else if (myCitizen.endurance > 0) { myCitizen.endurance = myCitizen.endurance - 1; }\n                else if (myCitizen.charisma > 0) { myCitizen.charisma = myCitizen.charisma - 1; }\n                else if (myCitizen.intelligence > 0) { myCitizen.intelligence = myCitizen.intelligence - 1; }\n                else if (myCitizen.luck > 0) { myCitizen.luck = myCitizen.luck - 1; }\n            }\n        }\n    }\n    \n    function totalStat(Citizen myCitizen)private view returns(uint)\n    {\n        return myCitizen.strength + myCitizen.perception + myCitizen.endurance + myCitizen.charisma + myCitizen.intelligence + myCitizen.agility + myCitizen.luck;\n    }\n    \n    /**\n     * @dev generates a random number between 0-99 \n     * @return the random number in uint256\n     */\n    function random() private view returns (uint256) {\n        uint256 seed = uint256(keccak256(abi.encodePacked(\n            \n            (block.timestamp).add\n            (block.difficulty).add\n            ((uint256(keccak256(abi.encodePacked(block.coinbase)))) / (now)).add\n            (block.gaslimit).add\n            ((uint256(keccak256(abi.encodePacked(msg.sender)))) / (now)).add\n            (block.number)\n            \n        )));\n        return (seed - ((seed / 1000) * 1000));\n    }\n\n        //battle\n    function battle(uint _citizenId, uint _targetId) onlyOwnerOf(_citizenId) public {\n        require(_citizenId < citizens.length);\n        require(_targetId < citizens.length);\n        Citizen storage myCitizen = citizens[_citizenId];\n        Citizen storage targetCitizen = citizens[_targetId];\n        require(myCitizen.resources >= 500);\n        require(targetCitizen.resources >= 500);\n        uint myBattlePower = _BattleScoreCal(myCitizen.strength , myCitizen.perception , myCitizen.endurance , myCitizen.charisma , myCitizen.intelligence , myCitizen.agility , myCitizen.luck,uint(blockhash(block.number-1))%3 + 1);\n        uint targetBattlePower = _BattleScoreCal(targetCitizen.strength, targetCitizen.perception , targetCitizen.endurance , targetCitizen.charisma , targetCitizen.intelligence , targetCitizen.agility , targetCitizen.luck,uint(blockhash(block.number-1))%3 + 1);\n        \n        if(myBattlePower>=targetBattlePower){\n            myCitizen.resources = myCitizen.resources + 500; \n            targetCitizen.resources = targetCitizen.resources -500;\n        }else{\n            targetCitizen.resources = targetCitizen.resources +500 ;\n            myCitizen.resources = myCitizen.resources-500;\n        }\n        myCitizen.lastExecutionTime = uint64(now);\n    }\n    function _BattleScoreCal(uint _s, uint _p, uint _e, uint _c, uint _i, uint _a, uint _l, uint _mode)public \n\n        returns (uint answer){\n        if (_mode == 1){\n            answer = luckmodifier(_s * 4 +_p * 0 +_e * 4 + _c * 0 + _i * 0 +_a * 2,_l);\n        }else if(_mode == 2){\n            answer = luckmodifier(_s * 0 +_p * 4 +_e * 0 + _c * 0 + _i * 2 +_a * 4,_l);\n        }else{\n            answer = luckmodifier(_s * 1 +_p * 0 +_e * 0 + _c * 6 + _i * 3 +_a * 0,_l);\n        }\n        return answer;\n    }\n    \n    \n    function luckmodifier(uint rawScore , uint _l )public returns(uint answer)\n    {\n        uint random_number = uint(blockhash(block.number-1))%10 + 1;\n         answer = rawScore;\n        if (_l < random_number){\n            answer = rawScore * 125;\n        }else if(_l > random_number){\n            answer = rawScore * 75;\n        }else{\n            answer = rawScore;\n        }\n    }\n    \n}\n",
  "sourcePath": "/Users/victorcheung/Documents/NiftyHackathonIkuze/bitski-quickstart/contracts/CitizenSim.sol",
  "compiler": {
    "name": "solc",
    "version": "0.4.24+commit.e67f0147.Emscripten.clang"
  },
  "schemaVersion": "2.0.1",
  "updatedAt": "2018-07-25T17:58:39.324Z"
}