{
  "contractName": "CitizenSim",
  "abi": [
    {
      "constant": true,
      "inputs": [
        {
          "name": "_interfaceId",
          "type": "bytes4"
        }
      ],
      "name": "supportsInterface",
      "outputs": [
        {
          "name": "",
          "type": "bool"
        }
      ],
      "payable": false,
      "stateMutability": "view",
      "type": "function"
    },
    {
      "constant": true,
      "inputs": [],
      "name": "name",
      "outputs": [
        {
          "name": "",
          "type": "string"
        }
      ],
      "payable": false,
      "stateMutability": "view",
      "type": "function"
    },
    {
      "constant": true,
      "inputs": [
        {
          "name": "_tokenId",
          "type": "uint256"
        }
      ],
      "name": "getApproved",
      "outputs": [
        {
          "name": "",
          "type": "address"
        }
      ],
      "payable": false,
      "stateMutability": "view",
      "type": "function"
    },
    {
      "constant": false,
      "inputs": [
        {
          "name": "_to",
          "type": "address"
        },
        {
          "name": "_tokenId",
          "type": "uint256"
        }
      ],
      "name": "approve",
      "outputs": [],
      "payable": false,
      "stateMutability": "nonpayable",
      "type": "function"
    },
    {
      "constant": true,
      "inputs": [
        {
          "name": "",
          "type": "uint256"
        }
      ],
      "name": "citizens",
      "outputs": [
        {
          "name": "name",
          "type": "string"
        },
        {
          "name": "birthTime",
          "type": "uint64"
        },
        {
          "name": "stamina",
          "type": "uint256"
        },
        {
          "name": "strength",
          "type": "uint256"
        },
        {
          "name": "perception",
          "type": "uint256"
        },
        {
          "name": "endurance",
          "type": "uint256"
        },
        {
          "name": "charisma",
          "type": "uint256"
        },
        {
          "name": "intelligence",
          "type": "uint256"
        },
        {
          "name": "agility",
          "type": "uint256"
        },
        {
          "name": "luck",
          "type": "uint256"
        },
        {
          "name": "lastExecutionTime",
          "type": "uint64"
        },
        {
          "name": "totalTask",
          "type": "uint256"
        },
        {
          "name": "resources",
          "type": "uint256"
        }
      ],
      "payable": false,
      "stateMutability": "view",
      "type": "function"
    },
    {
      "constant": true,
      "inputs": [],
      "name": "totalSupply",
      "outputs": [
        {
          "name": "",
          "type": "uint256"
        }
      ],
      "payable": false,
      "stateMutability": "view",
      "type": "function"
    },
    {
      "constant": true,
      "inputs": [],
      "name": "InterfaceId_ERC165",
      "outputs": [
        {
          "name": "",
          "type": "bytes4"
        }
      ],
      "payable": false,
      "stateMutability": "view",
      "type": "function"
    },
    {
      "constant": false,
      "inputs": [
        {
          "name": "_from",
          "type": "address"
        },
        {
          "name": "_to",
          "type": "address"
        },
        {
          "name": "_tokenId",
          "type": "uint256"
        }
      ],
      "name": "transferFrom",
      "outputs": [],
      "payable": false,
      "stateMutability": "nonpayable",
      "type": "function"
    },
    {
      "constant": true,
      "inputs": [
        {
          "name": "_owner",
          "type": "address"
        },
        {
          "name": "_index",
          "type": "uint256"
        }
      ],
      "name": "tokenOfOwnerByIndex",
      "outputs": [
        {
          "name": "",
          "type": "uint256"
        }
      ],
      "payable": false,
      "stateMutability": "view",
      "type": "function"
    },
    {
      "constant": false,
      "inputs": [
        {
          "name": "_from",
          "type": "address"
        },
        {
          "name": "_to",
          "type": "address"
        },
        {
          "name": "_tokenId",
          "type": "uint256"
        }
      ],
      "name": "safeTransferFrom",
      "outputs": [],
      "payable": false,
      "stateMutability": "nonpayable",
      "type": "function"
    },
    {
      "constant": true,
      "inputs": [
        {
          "name": "_tokenId",
          "type": "uint256"
        }
      ],
      "name": "exists",
      "outputs": [
        {
          "name": "",
          "type": "bool"
        }
      ],
      "payable": false,
      "stateMutability": "view",
      "type": "function"
    },
    {
      "constant": true,
      "inputs": [
        {
          "name": "_index",
          "type": "uint256"
        }
      ],
      "name": "tokenByIndex",
      "outputs": [
        {
          "name": "",
          "type": "uint256"
        }
      ],
      "payable": false,
      "stateMutability": "view",
      "type": "function"
    },
    {
      "constant": true,
      "inputs": [
        {
          "name": "_tokenId",
          "type": "uint256"
        }
      ],
      "name": "ownerOf",
      "outputs": [
        {
          "name": "",
          "type": "address"
        }
      ],
      "payable": false,
      "stateMutability": "view",
      "type": "function"
    },
    {
      "constant": true,
      "inputs": [
        {
          "name": "_owner",
          "type": "address"
        }
      ],
      "name": "balanceOf",
      "outputs": [
        {
          "name": "",
          "type": "uint256"
        }
      ],
      "payable": false,
      "stateMutability": "view",
      "type": "function"
    },
    {
      "constant": true,
      "inputs": [],
      "name": "owner",
      "outputs": [
        {
          "name": "",
          "type": "address"
        }
      ],
      "payable": false,
      "stateMutability": "view",
      "type": "function"
    },
    {
      "constant": true,
      "inputs": [],
      "name": "symbol",
      "outputs": [
        {
          "name": "",
          "type": "string"
        }
      ],
      "payable": false,
      "stateMutability": "view",
      "type": "function"
    },
    {
      "constant": false,
      "inputs": [
        {
          "name": "_to",
          "type": "address"
        },
        {
          "name": "_approved",
          "type": "bool"
        }
      ],
      "name": "setApprovalForAll",
      "outputs": [],
      "payable": false,
      "stateMutability": "nonpayable",
      "type": "function"
    },
    {
      "constant": false,
      "inputs": [
        {
          "name": "_from",
          "type": "address"
        },
        {
          "name": "_to",
          "type": "address"
        },
        {
          "name": "_tokenId",
          "type": "uint256"
        },
        {
          "name": "_data",
          "type": "bytes"
        }
      ],
      "name": "safeTransferFrom",
      "outputs": [],
      "payable": false,
      "stateMutability": "nonpayable",
      "type": "function"
    },
    {
      "constant": true,
      "inputs": [
        {
          "name": "_tokenId",
          "type": "uint256"
        }
      ],
      "name": "tokenURI",
      "outputs": [
        {
          "name": "",
          "type": "string"
        }
      ],
      "payable": false,
      "stateMutability": "view",
      "type": "function"
    },
    {
      "constant": true,
      "inputs": [],
      "name": "STAMINA_REGENRATION",
      "outputs": [
        {
          "name": "",
          "type": "uint256"
        }
      ],
      "payable": false,
      "stateMutability": "view",
      "type": "function"
    },
    {
      "constant": true,
      "inputs": [
        {
          "name": "_owner",
          "type": "address"
        },
        {
          "name": "_operator",
          "type": "address"
        }
      ],
      "name": "isApprovedForAll",
      "outputs": [
        {
          "name": "",
          "type": "bool"
        }
      ],
      "payable": false,
      "stateMutability": "view",
      "type": "function"
    },
    {
      "inputs": [],
      "payable": false,
      "stateMutability": "nonpayable",
      "type": "constructor"
    },
    {
      "anonymous": false,
      "inputs": [
        {
          "indexed": true,
          "name": "_from",
          "type": "address"
        },
        {
          "indexed": true,
          "name": "_to",
          "type": "address"
        },
        {
          "indexed": true,
          "name": "_tokenId",
          "type": "uint256"
        }
      ],
      "name": "Transfer",
      "type": "event"
    },
    {
      "anonymous": false,
      "inputs": [
        {
          "indexed": true,
          "name": "_owner",
          "type": "address"
        },
        {
          "indexed": true,
          "name": "_approved",
          "type": "address"
        },
        {
          "indexed": true,
          "name": "_tokenId",
          "type": "uint256"
        }
      ],
      "name": "Approval",
      "type": "event"
    },
    {
      "anonymous": false,
      "inputs": [
        {
          "indexed": true,
          "name": "_owner",
          "type": "address"
        },
        {
          "indexed": true,
          "name": "_operator",
          "type": "address"
        },
        {
          "indexed": false,
          "name": "_approved",
          "type": "bool"
        }
      ],
      "name": "ApprovalForAll",
      "type": "event"
    },
    {
      "constant": false,
      "inputs": [
        {
          "name": "_name",
          "type": "string"
        },
        {
          "name": "_to",
          "type": "address"
        }
      ],
      "name": "createCitizen",
      "outputs": [],
      "payable": false,
      "stateMutability": "nonpayable",
      "type": "function"
    },
    {
      "constant": false,
      "inputs": [
        {
          "name": "_citizenId",
          "type": "uint256"
        }
      ],
      "name": "logistics",
      "outputs": [],
      "payable": false,
      "stateMutability": "nonpayable",
      "type": "function"
    },
    {
      "constant": false,
      "inputs": [
        {
          "name": "_citizenId",
          "type": "uint256"
        }
      ],
      "name": "businessDevelopment",
      "outputs": [],
      "payable": false,
      "stateMutability": "nonpayable",
      "type": "function"
    },
    {
      "constant": false,
      "inputs": [
        {
          "name": "_citizenId",
          "type": "uint256"
        }
      ],
      "name": "accounting",
      "outputs": [],
      "payable": false,
      "stateMutability": "nonpayable",
      "type": "function"
    },
    {
      "constant": false,
      "inputs": [
        {
          "name": "_citizenId",
          "type": "uint256"
        }
      ],
      "name": "marketing",
      "outputs": [],
      "payable": false,
      "stateMutability": "nonpayable",
      "type": "function"
    },
    {
      "constant": false,
      "inputs": [
        {
          "name": "_citizenId",
          "type": "uint256"
        }
      ],
      "name": "it",
      "outputs": [],
      "payable": false,
      "stateMutability": "nonpayable",
      "type": "function"
    },
    {
      "constant": false,
      "inputs": [
        {
          "name": "_citizenId",
          "type": "uint256"
        }
      ],
      "name": "security",
      "outputs": [],
      "payable": false,
      "stateMutability": "nonpayable",
      "type": "function"
    },
    {
      "constant": false,
      "inputs": [
        {
          "name": "_citizenId",
          "type": "uint256"
        }
      ],
      "name": "hr",
      "outputs": [],
      "payable": false,
      "stateMutability": "nonpayable",
      "type": "function"
    },
    {
      "constant": false,
      "inputs": [
        {
          "name": "_citizenId",
          "type": "uint256"
        },
        {
          "name": "_targetId",
          "type": "uint256"
        }
      ],
      "name": "battle",
      "outputs": [],
      "payable": false,
      "stateMutability": "nonpayable",
      "type": "function"
    }
  ],
  "bytecode": "0x60806040523480156200001157600080fd5b506040805190810160405280600e81526020017f4f6666696365506f6c69746963730000000000000000000000000000000000008152506040805190810160405280600281526020017f4f50000000000000000000000000000000000000000000000000000000000000815250620000bb6301ffc9a77c0100000000000000000000000000000000000000000000000000000000026200022a640100000000026401000000009004565b620000f86380ac58cd7c0100000000000000000000000000000000000000000000000000000000026200022a640100000000026401000000009004565b62000135634f558e797c0100000000000000000000000000000000000000000000000000000000026200022a640100000000026401000000009004565b81600590805190602001906200014d929190620002e8565b50806006908051906020019062000166929190620002e8565b50620001a463780e9d637c0100000000000000000000000000000000000000000000000000000000026200022a640100000000026401000000009004565b620001e1635b5e139f7c0100000000000000000000000000000000000000000000000000000000026200022a640100000000026401000000009004565b505033600d60006101000a81548173ffffffffffffffffffffffffffffffffffffffff021916908373ffffffffffffffffffffffffffffffffffffffff16021790555062000397565b63ffffffff7c010000000000000000000000000000000000000000000000000000000002817bffffffffffffffffffffffffffffffffffffffffffffffffffffffff1916141515156200027c57600080fd5b6001600080837bffffffffffffffffffffffffffffffffffffffffffffffffffffffff19167bffffffffffffffffffffffffffffffffffffffffffffffffffffffff1916815260200190815260200160002060006101000a81548160ff02191690831515021790555050565b828054600181600116156101000203166002900490600052602060002090601f016020900481019282601f106200032b57805160ff19168380011785556200035c565b828001600101855582156200035c579182015b828111156200035b5782518255916020019190600101906200033e565b5b5090506200036b91906200036f565b5090565b6200039491905b808211156200039057600081600090555060010162000376565b5090565b90565b61452080620003a76000396000f300608060405260043610610180576000357c0100000000000000000000000000000000000000000000000000000000900463ffffffff16806301ffc9a71461018557806306fdde03146101e9578063081812fc14610279578063095ea7b3146102e657806309a34f001461033357806318160ddd1461045557806319fa8f501461048057806323b872dd146104e95780632a0c5221146105565780632f745c591461058d57806331f91438146105ee57806342842e0e1461061b5780634f558e79146106885780634f6ccce7146106cd5780636352211e1461070e57806370a082311461077b57806376679da3146107d25780638da5cb5b146107ff57806395d89b41146108565780639d12d01c146108e65780639e0a941614610913578063a22cb4651461099c578063a826ae1e146109eb578063b88d4fde14610a18578063c738564614610acb578063c87b56dd14610af8578063cabfbfbf14610b9e578063db54617d14610bcb578063e75da1ae14610bf6578063e985e9c514610c23575b600080fd5b34801561019157600080fd5b506101cf60048036038101908080357bffffffffffffffffffffffffffffffffffffffffffffffffffffffff19169060200190929190505050610c9e565b604051808215151515815260200191505060405180910390f35b3480156101f557600080fd5b506101fe610d05565b6040518080602001828103825283818151815260200191508051906020019080838360005b8381101561023e578082015181840152602081019050610223565b50505050905090810190601f16801561026b5780820380516001836020036101000a031916815260200191505b509250505060405180910390f35b34801561028557600080fd5b506102a460048036038101908080359060200190929190505050610d3e565b604051808273ffffffffffffffffffffffffffffffffffffffff1673ffffffffffffffffffffffffffffffffffffffff16815260200191505060405180910390f35b3480156102f257600080fd5b50610331600480360381019080803573ffffffffffffffffffffffffffffffffffffffff16906020019092919080359060200190929190505050610d7b565b005b34801561033f57600080fd5b5061035e60048036038101908080359060200190929190505050610ec0565b60405180806020018e67ffffffffffffffff1667ffffffffffffffff1681526020018d81526020018c81526020018b81526020018a81526020018981526020018881526020018781526020018681526020018567ffffffffffffffff1667ffffffffffffffff16815260200184815260200183815260200182810382528f818151815260200191508051906020019080838360005b8381101561040e5780820151818401526020810190506103f3565b50505050905090810190601f16801561043b5780820380516001836020036101000a031916815260200191505b509e50505050505050505050505050505060405180910390f35b34801561046157600080fd5b5061046a610ff5565b6040518082815260200191505060405180910390f35b34801561048c57600080fd5b50610495611002565b60405180827bffffffffffffffffffffffffffffffffffffffffffffffffffffffff19167bffffffffffffffffffffffffffffffffffffffffffffffffffffffff1916815260200191505060405180910390f35b3480156104f557600080fd5b50610554600480360381019080803573ffffffffffffffffffffffffffffffffffffffff169060200190929190803573ffffffffffffffffffffffffffffffffffffffff16906020019092919080359060200190929190505050611029565b005b34801561056257600080fd5b5061058b6004803603810190808035906020019092919080359060200190929190505050611136565b005b34801561059957600080fd5b506105d8600480360381019080803573ffffffffffffffffffffffffffffffffffffffff1690602001909291908035906020019092919050505061132d565b6040518082815260200191505060405180910390f35b3480156105fa57600080fd5b50610619600480360381019080803590602001909291905050506113a4565b005b34801561062757600080fd5b50610686600480360381019080803573ffffffffffffffffffffffffffffffffffffffff169060200190929190803573ffffffffffffffffffffffffffffffffffffffff16906020019092919080359060200190929190505050611792565b005b34801561069457600080fd5b506106b3600480360381019080803590602001909291905050506117ca565b604051808215151515815260200191505060405180910390f35b3480156106d957600080fd5b506106f86004803603810190808035906020019092919050505061183c565b6040518082815260200191505060405180910390f35b34801561071a57600080fd5b5061073960048036038101908080359060200190929190505050611874565b604051808273ffffffffffffffffffffffffffffffffffffffff1673ffffffffffffffffffffffffffffffffffffffff16815260200191505060405180910390f35b34801561078757600080fd5b506107bc600480360381019080803573ffffffffffffffffffffffffffffffffffffffff1690602001909291905050506118f2565b6040518082815260200191505060405180910390f35b3480156107de57600080fd5b506107fd60048036038101908080359060200190929190505050611976565b005b34801561080b57600080fd5b50610814611d64565b604051808273ffffffffffffffffffffffffffffffffffffffff1673ffffffffffffffffffffffffffffffffffffffff16815260200191505060405180910390f35b34801561086257600080fd5b5061086b611d8a565b6040518080602001828103825283818151815260200191508051906020019080838360005b838110156108ab578082015181840152602081019050610890565b50505050905090810190601f1680156108d85780820380516001836020036101000a031916815260200191505b509250505060405180910390f35b3480156108f257600080fd5b5061091160048036038101908080359060200190929190505050611dc3565b005b34801561091f57600080fd5b5061099a600480360381019080803590602001908201803590602001908080601f0160208091040260200160405190810160405280939291908181526020018383808284378201915050505050509192919290803573ffffffffffffffffffffffffffffffffffffffff1690602001909291905050506121b1565b005b3480156109a857600080fd5b506109e9600480360381019080803573ffffffffffffffffffffffffffffffffffffffff169060200190929190803515159060200190929190505050612355565b005b3480156109f757600080fd5b50610a1660048036038101908080359060200190929190505050612491565b005b348015610a2457600080fd5b50610ac9600480360381019080803573ffffffffffffffffffffffffffffffffffffffff169060200190929190803573ffffffffffffffffffffffffffffffffffffffff16906020019092919080359060200190929190803590602001908201803590602001908080601f016020809104026020016040519081016040528093929190818152602001838380828437820191505050505050919291929050505061287f565b005b348015610ad757600080fd5b50610af6600480360381019080803590602001909291905050506128be565b005b348015610b0457600080fd5b50610b2360048036038101908080359060200190929190505050612cac565b6040518080602001828103825283818151815260200191508051906020019080838360005b83811015610b63578082015181840152602081019050610b48565b50505050905090810190601f168015610b905780820380516001836020036101000a031916815260200191505b509250505060405180910390f35b348015610baa57600080fd5b50610bc960048036038101908080359060200190929190505050612d75565b005b348015610bd757600080fd5b50610be0613163565b6040518082815260200191505060405180910390f35b348015610c0257600080fd5b50610c216004803603810190808035906020019092919050505061316a565b005b348015610c2f57600080fd5b50610c84600480360381019080803573ffffffffffffffffffffffffffffffffffffffff169060200190929190803573ffffffffffffffffffffffffffffffffffffffff169060200190929190505050613558565b604051808215151515815260200191505060405180910390f35b6000806000837bffffffffffffffffffffffffffffffffffffffffffffffffffffffff19167bffffffffffffffffffffffffffffffffffffffffffffffffffffffff1916815260200190815260200160002060009054906101000a900460ff169050919050565b6040805190810160405280600e81526020017f4f6666696365506f6c697469637300000000000000000000000000000000000081525081565b60006002600083815260200190815260200160002060009054906101000a900473ffffffffffffffffffffffffffffffffffffffff169050919050565b6000610d8682611874565b90508073ffffffffffffffffffffffffffffffffffffffff168373ffffffffffffffffffffffffffffffffffffffff1614151515610dc357600080fd5b8073ffffffffffffffffffffffffffffffffffffffff163373ffffffffffffffffffffffffffffffffffffffff161480610e035750610e028133613558565b5b1515610e0e57600080fd5b826002600084815260200190815260200160002060006101000a81548173ffffffffffffffffffffffffffffffffffffffff021916908373ffffffffffffffffffffffffffffffffffffffff160217905550818373ffffffffffffffffffffffffffffffffffffffff168273ffffffffffffffffffffffffffffffffffffffff167f8c5be1e5ebec7d5bd14f71427d1e84f3dd0314c0f7b2291e5b200ac8c7c3b92560405160405180910390a4505050565b600c81815481101515610ecf57fe5b90600052602060002090600d0201600091509050806000018054600181600116156101000203166002900480601f016020809104026020016040519081016040528092919081815260200182805460018160011615610100020316600290048015610f7b5780601f10610f5057610100808354040283529160200191610f7b565b820191906000526020600020905b815481529060010190602001808311610f5e57829003601f168201915b5050505050908060010160009054906101000a900467ffffffffffffffff169080600201549080600301549080600401549080600501549080600601549080600701549080600801549080600901549080600a0160009054906101000a900467ffffffffffffffff169080600b01549080600c015490508d565b6000600980549050905090565b6301ffc9a77c01000000000000000000000000000000000000000000000000000000000281565b8061103433826135ec565b151561103f57600080fd5b600073ffffffffffffffffffffffffffffffffffffffff168473ffffffffffffffffffffffffffffffffffffffff161415151561107b57600080fd5b600073ffffffffffffffffffffffffffffffffffffffff168373ffffffffffffffffffffffffffffffffffffffff16141515156110b757600080fd5b6110c18483613681565b6110cb8483613784565b6110d5838361399c565b818373ffffffffffffffffffffffffffffffffffffffff168573ffffffffffffffffffffffffffffffffffffffff167fddf252ad1be2c89b69c2b068fc378daa952ba7f163c4a11628f55a4df523b3ef60405160405180910390a450505050565b600080600080853373ffffffffffffffffffffffffffffffffffffffff1661115d82611874565b73ffffffffffffffffffffffffffffffffffffffff1614151561117f57600080fd5b600c805490508710151561119257600080fd5b600c80549050861015156111a557600080fd5b8587141515156111b457600080fd5b600c878154811015156111c357fe5b90600052602060002090600d02019450600c868154811015156111e257fe5b90600052602060002090600d020193506101f485600c01541015151561120757600080fd5b6101f484600c01541015151561121c57600080fd5b61125f856003015486600401548760050154886006015489600701548a600801548b600901546001600360014303406001900481151561125857fe5b0601613a73565b92506112a48460030154856004015486600501548760060154886007015489600801548a600901546001600360014303406001900481151561129d57fe5b0601613a73565b915081831015156112d6576101f485600c01540185600c01819055506101f484600c01540384600c01819055506112f9565b6101f484600c01540184600c01819055506101f485600c01540385600c01819055505b4285600a0160006101000a81548167ffffffffffffffff021916908367ffffffffffffffff16021790555050505050505050565b6000611338836118f2565b8210151561134557600080fd5b600760008473ffffffffffffffffffffffffffffffffffffffff1673ffffffffffffffffffffffffffffffffffffffff1681526020019081526020016000208281548110151561139157fe5b9060005260206000200154905092915050565b600080823373ffffffffffffffffffffffffffffffffffffffff166113c882611874565b73ffffffffffffffffffffffffffffffffffffffff161415156113ea57600080fd5b60019250600c805490508410151561140157600080fd5b600c8481548110151561141057fe5b90600052602060002090600d020191506201518082600a0160009054906101000a900467ffffffffffffffff1667ffffffffffffffff1642031180611459575060008260020154115b151561146457600080fd5b6201518082600a0160009054906101000a900467ffffffffffffffff1667ffffffffffffffff16420381151561149657fe5b048260020154018260020181905550828260020154101515156114b857600080fd5b8282600201540382600201819055504282600a0160006101000a81548167ffffffffffffffff021916908367ffffffffffffffff1602179055506103e882600c01540182600c0181905550600a826006015410801561151f5750600461151c613b1a565b11155b1561178c576001826006015401826006018190555060286116b6836101a06040519081016040529081600082018054600181600116156101000203166002900480601f0160208091040260200160405190810160405280929190818152602001828054600181600116156101000203166002900480156115e05780601f106115b5576101008083540402835291602001916115e0565b820191906000526020600020905b8154815290600101906020018083116115c357829003601f168201915b505050505081526020016001820160009054906101000a900467ffffffffffffffff1667ffffffffffffffff1667ffffffffffffffff1681526020016002820154815260200160038201548152602001600482015481526020016005820154815260200160068201548152602001600782015481526020016008820154815260200160098201548152602001600a820160009054906101000a900467ffffffffffffffff1667ffffffffffffffff1667ffffffffffffffff168152602001600b8201548152602001600c82015481525050613dad565b10151561178b576000826005015411156116df576001826005015403826005018190555061178a565b6000826003015411156117015760018260030154038260030181905550611789565b6000826004015411156117235760018260040154038260040181905550611788565b6000826007015411156117455760018260070154038260070181905550611787565b6000826008015411156117675760018260080154038260080181905550611786565b60008260090154111561178557600182600901540382600901819055505b5b5b5b5b5b5b5b50505050565b8061179d33826135ec565b15156117a857600080fd5b6117c4848484602060405190810160405280600081525061287f565b50505050565b6000806001600084815260200190815260200160002060009054906101000a900473ffffffffffffffffffffffffffffffffffffffff169050600073ffffffffffffffffffffffffffffffffffffffff168173ffffffffffffffffffffffffffffffffffffffff161415915050919050565b6000611846610ff5565b8210151561185357600080fd5b60098281548110151561186257fe5b90600052602060002001549050919050565b6000806001600084815260200190815260200160002060009054906101000a900473ffffffffffffffffffffffffffffffffffffffff169050600073ffffffffffffffffffffffffffffffffffffffff168173ffffffffffffffffffffffffffffffffffffffff16141515156118e957600080fd5b80915050919050565b60008073ffffffffffffffffffffffffffffffffffffffff168273ffffffffffffffffffffffffffffffffffffffff161415151561192f57600080fd5b600360008373ffffffffffffffffffffffffffffffffffffffff1673ffffffffffffffffffffffffffffffffffffffff168152602001908152602001600020549050919050565b600080823373ffffffffffffffffffffffffffffffffffffffff1661199a82611874565b73ffffffffffffffffffffffffffffffffffffffff161415156119bc57600080fd5b60019250600c80549050841015156119d357600080fd5b600c848154811015156119e257fe5b90600052602060002090600d020191506201518082600a0160009054906101000a900467ffffffffffffffff1667ffffffffffffffff1642031180611a2b575060008260020154115b1515611a3657600080fd5b6201518082600a0160009054906101000a900467ffffffffffffffff1667ffffffffffffffff164203811515611a6857fe5b04826002015401826002018190555082826002015410151515611a8a57600080fd5b8282600201540382600201819055504282600a0160006101000a81548167ffffffffffffffff021916908367ffffffffffffffff1602179055506103e882600c01540182600c0181905550600a8260070154108015611af157506004611aee613b1a565b11155b15611d5e57600182600701540182600701819055506028611c88836101a06040519081016040529081600082018054600181600116156101000203166002900480601f016020809104026020016040519081016040528092919081815260200182805460018160011615610100020316600290048015611bb25780601f10611b8757610100808354040283529160200191611bb2565b820191906000526020600020905b815481529060010190602001808311611b9557829003601f168201915b505050505081526020016001820160009054906101000a900467ffffffffffffffff1667ffffffffffffffff1667ffffffffffffffff1681526020016002820154815260200160038201548152602001600482015481526020016005820154815260200160068201548152602001600782015481526020016008820154815260200160098201548152602001600a820160009054906101000a900467ffffffffffffffff1667ffffffffffffffff1667ffffffffffffffff168152602001600b8201548152602001600c82015481525050613dad565b101515611d5d57600082600301541115611cb15760018260030154038260030181905550611d5c565b600082600401541115611cd35760018260040154038260040181905550611d5b565b600082600501541115611cf55760018260050154038260050181905550611d5a565b600082600601541115611d175760018260060154038260060181905550611d59565b600082600801541115611d395760018260080154038260080181905550611d58565b600082600901541115611d5757600182600901540382600901819055505b5b5b5b5b5b5b5b50505050565b600d60009054906101000a900473ffffffffffffffffffffffffffffffffffffffff1681565b6040805190810160405280600281526020017f4f5000000000000000000000000000000000000000000000000000000000000081525081565b600080823373ffffffffffffffffffffffffffffffffffffffff16611de782611874565b73ffffffffffffffffffffffffffffffffffffffff16141515611e0957600080fd5b60019250600c8054905084101515611e2057600080fd5b600c84815481101515611e2f57fe5b90600052602060002090600d020191506201518082600a0160009054906101000a900467ffffffffffffffff1667ffffffffffffffff1642031180611e78575060008260020154115b1515611e8357600080fd5b6201518082600a0160009054906101000a900467ffffffffffffffff1667ffffffffffffffff164203811515611eb557fe5b04826002015401826002018190555082826002015410151515611ed757600080fd5b8282600201540382600201819055504282600a0160006101000a81548167ffffffffffffffff021916908367ffffffffffffffff1602179055506103e882600c01540182600c0181905550600a8260030154108015611f3e57506004611f3b613b1a565b11155b156121ab576001826003015401826003018190555060286120d5836101a06040519081016040529081600082018054600181600116156101000203166002900480601f016020809104026020016040519081016040528092919081815260200182805460018160011615610100020316600290048015611fff5780601f10611fd457610100808354040283529160200191611fff565b820191906000526020600020905b815481529060010190602001808311611fe257829003601f168201915b505050505081526020016001820160009054906101000a900467ffffffffffffffff1667ffffffffffffffff1667ffffffffffffffff1681526020016002820154815260200160038201548152602001600482015481526020016005820154815260200160068201548152602001600782015481526020016008820154815260200160098201548152602001600a820160009054906101000a900467ffffffffffffffff1667ffffffffffffffff1667ffffffffffffffff168152602001600b8201548152602001600c82015481525050613dad565b1015156121aa576000826007015411156120fe57600182600701540382600701819055506121a9565b60008260040154111561212057600182600401540382600401819055506121a8565b60008260050154111561214257600182600501540382600501819055506121a7565b60008260060154111561216457600182600601540382600601819055506121a6565b60008260080154111561218657600182600801540382600801819055506121a5565b6000826009015411156121a457600182600901540382600901819055505b5b5b5b5b5b5b5b50505050565b6000600c805490509050600c6101a0604051908101604052808581526020014267ffffffffffffffff16815260200160048152602001600481526020016004815260200160048152602001600481526020016004815260200160048152602001600681526020014267ffffffffffffffff1681526020016000815260200160008152509080600181540180825580915050906001820390600052602060002090600d020160009091929091909150600082015181600001908051906020019061227b929190614423565b5060208201518160010160006101000a81548167ffffffffffffffff021916908367ffffffffffffffff16021790555060408201518160020155606082015181600301556080820151816004015560a0820151816005015560c0820151816006015560e082015181600701556101008201518160080155610120820151816009015561014082015181600a0160006101000a81548167ffffffffffffffff021916908367ffffffffffffffff16021790555061016082015181600b015561018082015181600c01555050506123508282613de1565b505050565b3373ffffffffffffffffffffffffffffffffffffffff168273ffffffffffffffffffffffffffffffffffffffff161415151561239057600080fd5b80600460003373ffffffffffffffffffffffffffffffffffffffff1673ffffffffffffffffffffffffffffffffffffffff16815260200190815260200160002060008473ffffffffffffffffffffffffffffffffffffffff1673ffffffffffffffffffffffffffffffffffffffff16815260200190815260200160002060006101000a81548160ff0219169083151502179055508173ffffffffffffffffffffffffffffffffffffffff163373ffffffffffffffffffffffffffffffffffffffff167f17307eab39ab6107e8899845ad3d59bd9653f200f220920489ca2b5937696c3183604051808215151515815260200191505060405180910390a35050565b600080823373ffffffffffffffffffffffffffffffffffffffff166124b582611874565b73ffffffffffffffffffffffffffffffffffffffff161415156124d757600080fd5b60019250600c80549050841015156124ee57600080fd5b600c848154811015156124fd57fe5b90600052602060002090600d020191506201518082600a0160009054906101000a900467ffffffffffffffff1667ffffffffffffffff1642031180612546575060008260020154115b151561255157600080fd5b6201518082600a0160009054906101000a900467ffffffffffffffff1667ffffffffffffffff16420381151561258357fe5b048260020154018260020181905550828260020154101515156125a557600080fd5b8282600201540382600201819055504282600a0160006101000a81548167ffffffffffffffff021916908367ffffffffffffffff1602179055506103e882600c01540182600c0181905550600a826008015410801561260c57506004612609613b1a565b11155b15612879576001826008015401826008018190555060286127a3836101a06040519081016040529081600082018054600181600116156101000203166002900480601f0160208091040260200160405190810160405280929190818152602001828054600181600116156101000203166002900480156126cd5780601f106126a2576101008083540402835291602001916126cd565b820191906000526020600020905b8154815290600101906020018083116126b057829003601f168201915b505050505081526020016001820160009054906101000a900467ffffffffffffffff1667ffffffffffffffff1667ffffffffffffffff1681526020016002820154815260200160038201548152602001600482015481526020016005820154815260200160068201548152602001600782015481526020016008820154815260200160098201548152602001600a820160009054906101000a900467ffffffffffffffff1667ffffffffffffffff1667ffffffffffffffff168152602001600b8201548152602001600c82015481525050613dad565b101515612878576000826004015411156127cc5760018260040154038260040181905550612877565b6000826003015411156127ee5760018260030154038260030181905550612876565b6000826005015411156128105760018260050154038260050181905550612875565b6000826006015411156128325760018260060154038260060181905550612874565b6000826007015411156128545760018260070154038260070181905550612873565b60008260090154111561287257600182600901540382600901819055505b5b5b5b5b5b5b5b50505050565b8161288a33826135ec565b151561289557600080fd5b6128a0858585611029565b6128ac85858585613e38565b15156128b757600080fd5b5050505050565b600080823373ffffffffffffffffffffffffffffffffffffffff166128e282611874565b73ffffffffffffffffffffffffffffffffffffffff1614151561290457600080fd5b60019250600c805490508410151561291b57600080fd5b600c8481548110151561292a57fe5b90600052602060002090600d020191506201518082600a0160009054906101000a900467ffffffffffffffff1667ffffffffffffffff1642031180612973575060008260020154115b151561297e57600080fd5b6201518082600a0160009054906101000a900467ffffffffffffffff1667ffffffffffffffff1642038115156129b057fe5b048260020154018260020181905550828260020154101515156129d257600080fd5b8282600201540382600201819055504282600a0160006101000a81548167ffffffffffffffff021916908367ffffffffffffffff1602179055506103e882600c01540182600c0181905550600a8260080154108015612a3957506004612a36613b1a565b11155b15612ca657600182600801540182600801819055506028612bd0836101a06040519081016040529081600082018054600181600116156101000203166002900480601f016020809104026020016040519081016040528092919081815260200182805460018160011615610100020316600290048015612afa5780601f10612acf57610100808354040283529160200191612afa565b820191906000526020600020905b815481529060010190602001808311612add57829003601f168201915b505050505081526020016001820160009054906101000a900467ffffffffffffffff1667ffffffffffffffff1667ffffffffffffffff1681526020016002820154815260200160038201548152602001600482015481526020016005820154815260200160068201548152602001600782015481526020016008820154815260200160098201548152602001600a820160009054906101000a900467ffffffffffffffff1667ffffffffffffffff1667ffffffffffffffff168152602001600b8201548152602001600c82015481525050613dad565b101515612ca557600082600401541115612bf95760018260040154038260040181905550612ca4565b600082600301541115612c1b5760018260030154038260030181905550612ca3565b600082600501541115612c3d5760018260050154038260050181905550612ca2565b600082600601541115612c5f5760018260060154038260060181905550612ca1565b600082600701541115612c815760018260070154038260070181905550612ca0565b600082600901541115612c9f57600182600901540382600901819055505b5b5b5b5b5b5b5b50505050565b6060612cb7826117ca565b1515612cc257600080fd5b600b60008381526020019081526020016000208054600181600116156101000203166002900480601f016020809104026020016040519081016040528092919081815260200182805460018160011615610100020316600290048015612d695780601f10612d3e57610100808354040283529160200191612d69565b820191906000526020600020905b815481529060010190602001808311612d4c57829003601f168201915b50505050509050919050565b600080823373ffffffffffffffffffffffffffffffffffffffff16612d9982611874565b73ffffffffffffffffffffffffffffffffffffffff16141515612dbb57600080fd5b60019250600c8054905084101515612dd257600080fd5b600c84815481101515612de157fe5b90600052602060002090600d020191506201518082600a0160009054906101000a900467ffffffffffffffff1667ffffffffffffffff1642031180612e2a575060008260020154115b1515612e3557600080fd5b6201518082600a0160009054906101000a900467ffffffffffffffff1667ffffffffffffffff164203811515612e6757fe5b04826002015401826002018190555082826002015410151515612e8957600080fd5b8282600201540382600201819055504282600a0160006101000a81548167ffffffffffffffff021916908367ffffffffffffffff1602179055506103e882600c01540182600c0181905550600a8260050154108015612ef057506004612eed613b1a565b11155b1561315d57600182600501540182600501819055506028613087836101a06040519081016040529081600082018054600181600116156101000203166002900480601f016020809104026020016040519081016040528092919081815260200182805460018160011615610100020316600290048015612fb15780601f10612f8657610100808354040283529160200191612fb1565b820191906000526020600020905b815481529060010190602001808311612f9457829003601f168201915b505050505081526020016001820160009054906101000a900467ffffffffffffffff1667ffffffffffffffff1667ffffffffffffffff1681526020016002820154815260200160038201548152602001600482015481526020016005820154815260200160068201548152602001600782015481526020016008820154815260200160098201548152602001600a820160009054906101000a900467ffffffffffffffff1667ffffffffffffffff1667ffffffffffffffff168152602001600b8201548152602001600c82015481525050613dad565b10151561315c576000826006015411156130b0576001826006015403826006018190555061315b565b6000826003015411156130d2576001826003015403826003018190555061315a565b6000826004015411156130f45760018260040154038260040181905550613159565b6000826007015411156131165760018260070154038260070181905550613158565b6000826008015411156131385760018260080154038260080181905550613157565b60008260090154111561315657600182600901540382600901819055505b5b5b5b5b5b5b5b50505050565b6201518081565b600080823373ffffffffffffffffffffffffffffffffffffffff1661318e82611874565b73ffffffffffffffffffffffffffffffffffffffff161415156131b057600080fd5b60019250600c80549050841015156131c757600080fd5b600c848154811015156131d657fe5b90600052602060002090600d020191506201518082600a0160009054906101000a900467ffffffffffffffff1667ffffffffffffffff164203118061321f575060008260020154115b151561322a57600080fd5b6201518082600a0160009054906101000a900467ffffffffffffffff1667ffffffffffffffff16420381151561325c57fe5b0482600201540182600201819055508282600201541015151561327e57600080fd5b8282600201540382600201819055504282600a0160006101000a81548167ffffffffffffffff021916908367ffffffffffffffff1602179055506103e882600c01540182600c0181905550600a82600401541080156132e5575060046132e2613b1a565b11155b156135525760018260040154018260040181905550602861347c836101a06040519081016040529081600082018054600181600116156101000203166002900480601f0160208091040260200160405190810160405280929190818152602001828054600181600116156101000203166002900480156133a65780601f1061337b576101008083540402835291602001916133a6565b820191906000526020600020905b81548152906001019060200180831161338957829003601f168201915b505050505081526020016001820160009054906101000a900467ffffffffffffffff1667ffffffffffffffff1667ffffffffffffffff1681526020016002820154815260200160038201548152602001600482015481526020016005820154815260200160068201548152602001600782015481526020016008820154815260200160098201548152602001600a820160009054906101000a900467ffffffffffffffff1667ffffffffffffffff1667ffffffffffffffff168152602001600b8201548152602001600c82015481525050613dad565b101515613551576000826009015411156134a55760018260090154038260090181905550613550565b6000826003015411156134c7576001826003015403826003018190555061354f565b6000826005015411156134e9576001826005015403826005018190555061354e565b60008260060154111561350b576001826006015403826006018190555061354d565b60008260070154111561352d576001826007015403826007018190555061354c565b60008260080154111561354b57600182600801540382600801819055505b5b5b5b5b5b5b5b50505050565b6000600460008473ffffffffffffffffffffffffffffffffffffffff1673ffffffffffffffffffffffffffffffffffffffff16815260200190815260200160002060008373ffffffffffffffffffffffffffffffffffffffff1673ffffffffffffffffffffffffffffffffffffffff16815260200190815260200160002060009054906101000a900460ff16905092915050565b6000806135f883611874565b90508073ffffffffffffffffffffffffffffffffffffffff168473ffffffffffffffffffffffffffffffffffffffff16148061366757508373ffffffffffffffffffffffffffffffffffffffff1661364f84610d3e565b73ffffffffffffffffffffffffffffffffffffffff16145b8061367857506136778185613558565b5b91505092915050565b8173ffffffffffffffffffffffffffffffffffffffff166136a182611874565b73ffffffffffffffffffffffffffffffffffffffff161415156136c357600080fd5b600073ffffffffffffffffffffffffffffffffffffffff166002600083815260200190815260200160002060009054906101000a900473ffffffffffffffffffffffffffffffffffffffff1673ffffffffffffffffffffffffffffffffffffffff161415156137805760006002600083815260200190815260200160002060006101000a81548173ffffffffffffffffffffffffffffffffffffffff021916908373ffffffffffffffffffffffffffffffffffffffff1602179055505b5050565b6000806000613793858561405a565b600860008581526020019081526020016000205492506137ff6001600760008873ffffffffffffffffffffffffffffffffffffffff1673ffffffffffffffffffffffffffffffffffffffff1681526020019081526020016000208054905061418990919063ffffffff16565b9150600760008673ffffffffffffffffffffffffffffffffffffffff1673ffffffffffffffffffffffffffffffffffffffff1681526020019081526020016000208281548110151561384d57fe5b9060005260206000200154905080600760008773ffffffffffffffffffffffffffffffffffffffff1673ffffffffffffffffffffffffffffffffffffffff168152602001908152602001600020848154811015156138a757fe5b90600052602060002001819055506000600760008773ffffffffffffffffffffffffffffffffffffffff1673ffffffffffffffffffffffffffffffffffffffff1681526020019081526020016000208381548110151561390357fe5b9060005260206000200181905550600760008673ffffffffffffffffffffffffffffffffffffffff1673ffffffffffffffffffffffffffffffffffffffff16815260200190815260200160002080548091906001900361396391906144a3565b50600060086000868152602001908152602001600020819055508260086000838152602001908152602001600020819055505050505050565b60006139a883836141a2565b600760008473ffffffffffffffffffffffffffffffffffffffff1673ffffffffffffffffffffffffffffffffffffffff168152602001908152602001600020805490509050600760008473ffffffffffffffffffffffffffffffffffffffff1673ffffffffffffffffffffffffffffffffffffffff168152602001908152602001600020829080600181540180825580915050906001820390600052602060002001600090919290919091505550806008600084815260200190815260200160002081905550505050565b60006001821415613aab57613aa460028502600087026000890260048b0260008d0260048f020101010101846142fc565b9050613b0b565b6002821415613ae157613ada60048502600287026000890260008b0260048d0260008f020101010101846142fc565b9050613b0a565b613b0760008502600387026006890260008b0260008d0260018f020101010101846142fc565b90505b5b80905098975050505050505050565b600080613d0e43613d004233604051602001808273ffffffffffffffffffffffffffffffffffffffff1673ffffffffffffffffffffffffffffffffffffffff166c010000000000000000000000000281526014019150506040516020818303038152906040526040518082805190602001908083835b602083101515613bb55780518252602082019150602081019050602083039250613b90565b6001836020036101000a038019825116818451168082178552505050505050905001915050604051809103902060019004811515613bef57fe5b04613cf245613ce44241604051602001808273ffffffffffffffffffffffffffffffffffffffff1673ffffffffffffffffffffffffffffffffffffffff166c010000000000000000000000000281526014019150506040516020818303038152906040526040518082805190602001908083835b602083101515613c885780518252602082019150602081019050602083039250613c63565b6001836020036101000a038019825116818451168082178552505050505050905001915050604051809103902060019004811515613cc257fe5b04613cd6444261434e90919063ffffffff16565b61434e90919063ffffffff16565b61434e90919063ffffffff16565b61434e90919063ffffffff16565b61434e90919063ffffffff16565b604051602001808281526020019150506040516020818303038152906040526040518082805190602001908083835b602083101515613d625780518252602082019150602081019050602083039250613d3d565b6001836020036101000a03801982511681845116808217855250505050505090500191505060405180910390206001900490506103e88082811515613da357fe5b0402810391505090565b60008161012001518261010001518360e001518460c001518560a00151866080015187606001510101010101019050919050565b613deb828261436a565b600980549050600a60008381526020019081526020016000208190555060098190806001815401808255809150509060018203906000526020600020016000909192909190915055505050565b600080613e5a8573ffffffffffffffffffffffffffffffffffffffff16614410565b1515613e695760019150614051565b8473ffffffffffffffffffffffffffffffffffffffff1663150b7a02338887876040518563ffffffff167c0100000000000000000000000000000000000000000000000000000000028152600401808573ffffffffffffffffffffffffffffffffffffffff1673ffffffffffffffffffffffffffffffffffffffff1681526020018473ffffffffffffffffffffffffffffffffffffffff1673ffffffffffffffffffffffffffffffffffffffff16815260200183815260200180602001828103825283818151815260200191508051906020019080838360005b83811015613f5e578082015181840152602081019050613f43565b50505050905090810190601f168015613f8b5780820380516001836020036101000a031916815260200191505b5095505050505050602060405180830381600087803b158015613fad57600080fd5b505af1158015613fc1573d6000803e3d6000fd5b505050506040513d6020811015613fd757600080fd5b8101908080519060200190929190505050905063150b7a027c0100000000000000000000000000000000000000000000000000000000027bffffffffffffffffffffffffffffffffffffffffffffffffffffffff1916817bffffffffffffffffffffffffffffffffffffffffffffffffffffffff19161491505b50949350505050565b8173ffffffffffffffffffffffffffffffffffffffff1661407a82611874565b73ffffffffffffffffffffffffffffffffffffffff1614151561409c57600080fd5b6140ef6001600360008573ffffffffffffffffffffffffffffffffffffffff1673ffffffffffffffffffffffffffffffffffffffff1681526020019081526020016000205461418990919063ffffffff16565b600360008473ffffffffffffffffffffffffffffffffffffffff1673ffffffffffffffffffffffffffffffffffffffff1681526020019081526020016000208190555060006001600083815260200190815260200160002060006101000a81548173ffffffffffffffffffffffffffffffffffffffff021916908373ffffffffffffffffffffffffffffffffffffffff1602179055505050565b600082821115151561419757fe5b818303905092915050565b600073ffffffffffffffffffffffffffffffffffffffff166001600083815260200190815260200160002060009054906101000a900473ffffffffffffffffffffffffffffffffffffffff1673ffffffffffffffffffffffffffffffffffffffff1614151561421057600080fd5b816001600083815260200190815260200160002060006101000a81548173ffffffffffffffffffffffffffffffffffffffff021916908373ffffffffffffffffffffffffffffffffffffffff1602179055506142b56001600360008573ffffffffffffffffffffffffffffffffffffffff1673ffffffffffffffffffffffffffffffffffffffff1681526020019081526020016000205461434e90919063ffffffff16565b600360008473ffffffffffffffffffffffffffffffffffffffff1673ffffffffffffffffffffffffffffffffffffffff168152602001908152602001600020819055505050565b6000806001600a60014303406001900481151561431557fe5b060190508391508083101561432f57607d84029150614347565b8083111561434257604b84029150614346565b8391505b5b5092915050565b6000818301905082811015151561436157fe5b80905092915050565b600073ffffffffffffffffffffffffffffffffffffffff168273ffffffffffffffffffffffffffffffffffffffff16141515156143a657600080fd5b6143b0828261399c565b808273ffffffffffffffffffffffffffffffffffffffff16600073ffffffffffffffffffffffffffffffffffffffff167fddf252ad1be2c89b69c2b068fc378daa952ba7f163c4a11628f55a4df523b3ef60405160405180910390a45050565b600080823b905060008111915050919050565b828054600181600116156101000203166002900490600052602060002090601f016020900481019282601f1061446457805160ff1916838001178555614492565b82800160010185558215614492579182015b82811115614491578251825591602001919060010190614476565b5b50905061449f91906144cf565b5090565b8154818355818111156144ca578183600052602060002091820191016144c991906144cf565b5b505050565b6144f191905b808211156144ed5760008160009055506001016144d5565b5090565b905600a165627a7a72305820afddac292ddc341407032630e93888ce4240aa54b4f971b510ca2718e529ab5f0029",
  "source": "pragma solidity ^0.4.24;\n\nimport './ERC721Token.sol';\n\ncontract CitizenSim is ERC721Token {\n    string public constant name = \"OfficePolitics\";\n    string public constant symbol = \"OP\";\n\n    struct Citizen {\n        string name;\n        uint64 birthTime;\n        uint stamina;\n        uint strength;\n        uint perception;\n        uint endurance;\n        uint charisma;\n        uint intelligence;\n        uint agility;\n        uint luck;\n        uint64 lastExecutionTime;\n        uint totalTask;\n        uint256 resources;\n    }\n    \n    \n    //TODO: Make Referral Line\n    //get % creation fee\n    //extra money\n    \n    //Battle Mechanism\n    //TODO: Random Encounter\n    \n    \n    Citizen[] public citizens;\n    address public owner;\n    uint public constant STAMINA_REGENRATION = 1 days;\n    \n    constructor() public\n        ERC721Token(name, symbol)\n    {\n        owner = msg.sender;\n    }\n    \n    function createCitizen(string _name, address _to) public {\n        //TODO: Charge 0.01 ETH per creation , by pulic\n        //require(msg.sender == owner);\n        uint id = citizens.length;\n        //uint[7] memory special;\n        //uint rand = 0;\n        //Check sum of all stat <=30\n        //for (uint i=0; i<30; i++) {\n        //    rand = random()%6;\n        //    special[rand] = special[rand] + 1 ;\n        //}\n        //require (special[0] + special[1] + special[2] + special[3] + special[4] + special[5] + special[6] <= 30);\n        citizens.push(Citizen(_name, uint64(now), 4, 4, 4, 4, 4, 4, 4, 6, uint64(now), 0,0));\n        _mint(_to,id);\n    }\n    function logistics(uint _citizenId) onlyOwnerOf(_citizenId) public {\n        uint stamina_base_cost = 1;\n        \n        require(_citizenId < citizens.length);\n        \n        Citizen storage myCitizen = citizens[_citizenId];\n        require(((now - myCitizen.lastExecutionTime) > STAMINA_REGENRATION) || myCitizen.stamina > 0);\n        myCitizen.stamina = myCitizen.stamina + ((now - myCitizen.lastExecutionTime) / STAMINA_REGENRATION);\n        require(myCitizen.stamina >= stamina_base_cost);\n        \n        // - stamina\n        myCitizen.stamina = myCitizen.stamina - stamina_base_cost;\n        myCitizen.lastExecutionTime = uint64(now);\n        \n        // Add resources\n        myCitizen.resources = myCitizen.resources + 1000;\n        \n        // 5% of chance to increase stat in working\n        if (myCitizen.strength < 10 && random() <= 4 )\n        {\n            //true\n            myCitizen.strength = myCitizen.strength + 1;\n            if (totalStat(myCitizen) >= 40)\n            {\n                if (myCitizen.intelligence > 0) { myCitizen.intelligence = myCitizen.intelligence - 1; }\n                else if (myCitizen.perception > 0) { myCitizen.perception = myCitizen.perception - 1; }\n                else if (myCitizen.endurance > 0) { myCitizen.endurance = myCitizen.endurance - 1; }\n                else if (myCitizen.charisma > 0) { myCitizen.charisma = myCitizen.charisma - 1; }\n                else if (myCitizen.agility > 0) { myCitizen.agility = myCitizen.agility - 1; }\n                else if (myCitizen.luck > 0) { myCitizen.luck = myCitizen.luck - 1; }\n            }\n        }\n    }\n    \n    function businessDevelopment(uint _citizenId) onlyOwnerOf(_citizenId) public {\n        uint stamina_base_cost = 1;\n        \n        require(_citizenId < citizens.length);\n        \n        Citizen storage myCitizen = citizens[_citizenId];\n        require(((now - myCitizen.lastExecutionTime) > STAMINA_REGENRATION) || myCitizen.stamina > 0);\n        myCitizen.stamina = myCitizen.stamina + ((now - myCitizen.lastExecutionTime) / STAMINA_REGENRATION);\n        require(myCitizen.stamina >= stamina_base_cost);\n        \n        // - stamina\n        myCitizen.stamina = myCitizen.stamina - stamina_base_cost;\n        myCitizen.lastExecutionTime = uint64(now);\n        \n        // Add resources\n        myCitizen.resources = myCitizen.resources + 1000;\n        \n        // 5% of chance to increase stat in working\n        if (myCitizen.perception < 10 && random() <= 4 )\n        {\n            //true\n            myCitizen.perception = myCitizen.perception + 1;\n            if (totalStat(myCitizen) >= 40)\n            {\n                if (myCitizen.luck > 0) { myCitizen.luck = myCitizen.luck - 1; }\n                else if (myCitizen.strength > 0) { myCitizen.strength = myCitizen.strength - 1; }\n                else if (myCitizen.endurance > 0) { myCitizen.endurance = myCitizen.endurance - 1; }\n                else if (myCitizen.charisma > 0) { myCitizen.charisma = myCitizen.charisma - 1; }\n                else if (myCitizen.intelligence > 0) { myCitizen.intelligence = myCitizen.intelligence - 1; }\n                else if (myCitizen.agility > 0) { myCitizen.agility = myCitizen.agility - 1; }\n            }\n        }\n    }\n    \n    function accounting(uint _citizenId) onlyOwnerOf(_citizenId) public {\n        uint stamina_base_cost = 1;\n        \n        require(_citizenId < citizens.length);\n        \n        Citizen storage myCitizen = citizens[_citizenId];\n        require(((now - myCitizen.lastExecutionTime) > STAMINA_REGENRATION) || myCitizen.stamina > 0);\n        myCitizen.stamina = myCitizen.stamina + ((now - myCitizen.lastExecutionTime) / STAMINA_REGENRATION);\n        require(myCitizen.stamina >= stamina_base_cost);\n        \n        // - stamina\n        myCitizen.stamina = myCitizen.stamina - stamina_base_cost;\n        myCitizen.lastExecutionTime = uint64(now);\n        \n        // Add resources\n        myCitizen.resources = myCitizen.resources + 1000;\n        \n        // 5% of chance to increase stat in working\n        if (myCitizen.endurance < 10 && random() <= 4 )\n        {\n            //true\n            myCitizen.endurance = myCitizen.endurance + 1;\n            if (totalStat(myCitizen) >= 40)\n            {\n                if (myCitizen.charisma > 0) { myCitizen.charisma = myCitizen.charisma - 1; }\n                else if (myCitizen.strength > 0) { myCitizen.strength = myCitizen.strength - 1; }\n                else if (myCitizen.perception > 0) { myCitizen.perception = myCitizen.perception - 1; }\n                else if (myCitizen.intelligence > 0) { myCitizen.intelligence = myCitizen.intelligence - 1; }\n                else if (myCitizen.agility > 0) { myCitizen.agility = myCitizen.agility - 1; }\n                else if (myCitizen.luck > 0) { myCitizen.luck = myCitizen.luck - 1; }\n            }\n        }\n    }\n    \n    function marketing(uint _citizenId) onlyOwnerOf(_citizenId) public {\n        uint stamina_base_cost = 1;\n        \n        require(_citizenId < citizens.length);\n        \n        Citizen storage myCitizen = citizens[_citizenId];\n        require(((now - myCitizen.lastExecutionTime) > STAMINA_REGENRATION) || myCitizen.stamina > 0);\n        myCitizen.stamina = myCitizen.stamina + ((now - myCitizen.lastExecutionTime) / STAMINA_REGENRATION);\n        require(myCitizen.stamina >= stamina_base_cost);\n        \n        // - stamina\n        myCitizen.stamina = myCitizen.stamina - stamina_base_cost;\n        myCitizen.lastExecutionTime = uint64(now);\n        \n        // Add resources\n        myCitizen.resources = myCitizen.resources + 1000;\n        \n        // 5% of chance to increase stat in working\n        if (myCitizen.charisma < 10 && random() <= 4 )\n        {\n            //true\n            myCitizen.charisma = myCitizen.charisma + 1;\n            if (totalStat(myCitizen) >= 40)\n            {\n                if (myCitizen.endurance > 0) { myCitizen.endurance = myCitizen.endurance - 1; }\n                else if (myCitizen.strength > 0) { myCitizen.strength = myCitizen.strength - 1; }\n                else if (myCitizen.perception > 0) { myCitizen.perception = myCitizen.perception - 1; }\n                else if (myCitizen.intelligence > 0) { myCitizen.intelligence = myCitizen.intelligence - 1; }\n                else if (myCitizen.agility > 0) { myCitizen.agility = myCitizen.agility - 1; }\n                else if (myCitizen.luck > 0) { myCitizen.luck = myCitizen.luck - 1; }\n            }\n        }\n    }\n    \n    function it(uint _citizenId) onlyOwnerOf(_citizenId) public {\n        uint stamina_base_cost = 1;\n        \n        require(_citizenId < citizens.length);\n        \n        Citizen storage myCitizen = citizens[_citizenId];\n        require(((now - myCitizen.lastExecutionTime) > STAMINA_REGENRATION) || myCitizen.stamina > 0);\n        myCitizen.stamina = myCitizen.stamina + ((now - myCitizen.lastExecutionTime) / STAMINA_REGENRATION);\n        require(myCitizen.stamina >= stamina_base_cost);\n        \n        // - stamina\n        myCitizen.stamina = myCitizen.stamina - stamina_base_cost;\n        myCitizen.lastExecutionTime = uint64(now);\n        \n        // Add resources\n        myCitizen.resources = myCitizen.resources + 1000;\n        \n        // 5% of chance to increase stat in working\n        if (myCitizen.intelligence < 10 && random() <= 4 )\n        {\n            //true\n            myCitizen.intelligence = myCitizen.intelligence + 1;\n            if (totalStat(myCitizen) >= 40)\n            {\n                if (myCitizen.strength > 0) { myCitizen.strength = myCitizen.strength - 1; }\n                else if (myCitizen.perception > 0) { myCitizen.perception = myCitizen.perception - 1; }\n                else if (myCitizen.endurance > 0) { myCitizen.endurance = myCitizen.endurance - 1; }\n                else if (myCitizen.charisma > 0) { myCitizen.charisma = myCitizen.charisma - 1; }\n                else if (myCitizen.agility > 0) { myCitizen.agility = myCitizen.agility - 1; }\n                else if (myCitizen.luck > 0) { myCitizen.luck = myCitizen.luck - 1; }\n            }\n        }\n    }\n    \n    function security(uint _citizenId) onlyOwnerOf(_citizenId) public {\n        uint stamina_base_cost = 1;\n        \n        require(_citizenId < citizens.length);\n        \n        Citizen storage myCitizen = citizens[_citizenId];\n        require(((now - myCitizen.lastExecutionTime) > STAMINA_REGENRATION) || myCitizen.stamina > 0);\n        myCitizen.stamina = myCitizen.stamina + ((now - myCitizen.lastExecutionTime) / STAMINA_REGENRATION);\n        require(myCitizen.stamina >= stamina_base_cost);\n        \n        // - stamina\n        myCitizen.stamina = myCitizen.stamina - stamina_base_cost;\n        myCitizen.lastExecutionTime = uint64(now);\n        \n        // Add resources\n        myCitizen.resources = myCitizen.resources + 1000;\n        \n        // 5% of chance to increase stat in working\n        if (myCitizen.agility < 10 && random() <= 4 )\n        {\n            //true\n            myCitizen.agility = myCitizen.agility + 1;\n            if (totalStat(myCitizen) >= 40)\n            {\n                if (myCitizen.perception > 0) { myCitizen.perception = myCitizen.perception - 1; }\n                else if (myCitizen.strength > 0) { myCitizen.strength = myCitizen.strength - 1; }\n                else if (myCitizen.endurance > 0) { myCitizen.endurance = myCitizen.endurance - 1; }\n                else if (myCitizen.charisma > 0) { myCitizen.charisma = myCitizen.charisma - 1; }\n                else if (myCitizen.intelligence > 0) { myCitizen.intelligence = myCitizen.intelligence - 1; }\n                else if (myCitizen.luck > 0) { myCitizen.luck = myCitizen.luck - 1; }\n            }\n        }\n    }\n    \n    function hr(uint _citizenId) onlyOwnerOf(_citizenId) public {\n        uint stamina_base_cost = 1;\n        \n        require(_citizenId < citizens.length);\n        \n        Citizen storage myCitizen = citizens[_citizenId];\n        require(((now - myCitizen.lastExecutionTime) > STAMINA_REGENRATION) || myCitizen.stamina > 0);\n        myCitizen.stamina = myCitizen.stamina + ((now - myCitizen.lastExecutionTime) / STAMINA_REGENRATION);\n        require(myCitizen.stamina >= stamina_base_cost);\n        \n        // - stamina\n        myCitizen.stamina = myCitizen.stamina - stamina_base_cost;\n        myCitizen.lastExecutionTime = uint64(now);\n        \n        // Add resources\n        myCitizen.resources = myCitizen.resources + 1000;\n        \n        // 5% of chance to increase stat in working\n        if (myCitizen.agility < 10 && random() <= 4 )\n        {\n            //true\n            myCitizen.agility = myCitizen.agility + 1;\n            if (totalStat(myCitizen) >= 40)\n            {\n                if (myCitizen.perception > 0) { myCitizen.perception = myCitizen.perception - 1; }\n                else if (myCitizen.strength > 0) { myCitizen.strength = myCitizen.strength - 1; }\n                else if (myCitizen.endurance > 0) { myCitizen.endurance = myCitizen.endurance - 1; }\n                else if (myCitizen.charisma > 0) { myCitizen.charisma = myCitizen.charisma - 1; }\n                else if (myCitizen.intelligence > 0) { myCitizen.intelligence = myCitizen.intelligence - 1; }\n                else if (myCitizen.luck > 0) { myCitizen.luck = myCitizen.luck - 1; }\n            }\n        }\n    }\n    \n    function totalStat(Citizen myCitizen)private view returns(uint)\n    {\n        return myCitizen.strength + myCitizen.perception + myCitizen.endurance + myCitizen.charisma + myCitizen.intelligence + myCitizen.agility + myCitizen.luck;\n    }\n    \n    /**\n     * @dev generates a random number between 0-99 \n     * @return the random number in uint256\n     */\n    function random() private view returns (uint256) {\n        uint256 seed = uint256(keccak256(abi.encodePacked(\n            \n            (block.timestamp).add\n            (block.difficulty).add\n            ((uint256(keccak256(abi.encodePacked(block.coinbase)))) / (now)).add\n            (block.gaslimit).add\n            ((uint256(keccak256(abi.encodePacked(msg.sender)))) / (now)).add\n            (block.number)\n            \n        )));\n        return (seed - ((seed / 1000) * 1000));\n    }\n\n        //battle\n    function battle(uint _citizenId, uint _targetId) onlyOwnerOf(_citizenId) public {\n        require(_citizenId < citizens.length);\n        require(_targetId < citizens.length);\n        require(_citizenId != _targetId);\n        Citizen storage myCitizen = citizens[_citizenId];\n        Citizen storage targetCitizen = citizens[_targetId];\n        require(myCitizen.resources >= 500);\n        require(targetCitizen.resources >= 500);\n        uint myBattlePower = _BattleScoreCal(myCitizen.strength , myCitizen.perception , myCitizen.endurance , myCitizen.charisma , myCitizen.intelligence , myCitizen.agility , myCitizen.luck,uint(blockhash(block.number-1))%3 + 1);\n        uint targetBattlePower = _BattleScoreCal(targetCitizen.strength, targetCitizen.perception , targetCitizen.endurance , targetCitizen.charisma , targetCitizen.intelligence , targetCitizen.agility , targetCitizen.luck,uint(blockhash(block.number-1))%3 + 1);\n        \n        if(myBattlePower>=targetBattlePower){\n            myCitizen.resources = myCitizen.resources + 500; \n            targetCitizen.resources = targetCitizen.resources -500;\n        }else{\n            targetCitizen.resources = targetCitizen.resources +500 ;\n            myCitizen.resources = myCitizen.resources-500;\n        }\n        myCitizen.lastExecutionTime = uint64(now);\n    }\n    function _BattleScoreCal(uint _s, uint _p, uint _e, uint _c, uint _i, uint _a, uint _l, uint _mode)private\n\n        returns (uint answer){\n        if (_mode == 1){\n            answer = luckmodifier(_s * 4 +_p * 0 +_e * 4 + _c * 0 + _i * 0 +_a * 2,_l);\n        }else if(_mode == 2){\n            answer = luckmodifier(_s * 0 +_p * 4 +_e * 0 + _c * 0 + _i * 2 +_a * 4,_l);\n        }else{\n            answer = luckmodifier(_s * 1 +_p * 0 +_e * 0 + _c * 6 + _i * 3 +_a * 0,_l);\n        }\n        return answer;\n    }\n    \n    \n    function luckmodifier(uint rawScore , uint _l )private returns(uint answer)\n    {\n        uint random_number = uint(blockhash(block.number-1))%10 + 1;\n         answer = rawScore;\n        if (_l < random_number){\n            answer = rawScore * 125;\n        }else if(_l > random_number){\n            answer = rawScore * 75;\n        }else{\n            answer = rawScore;\n        }\n    }\n    \n}",
  "sourcePath": "/Users/victorcheung/Documents/NiftyHackathonIkuze/bitski-quickstart/contracts/CitizenSim.sol",
  "compiler": {
    "name": "solc",
    "version": "0.4.24+commit.e67f0147.Emscripten.clang"
  },
  "schemaVersion": "2.0.1",
  "updatedAt": "2018-07-25T22:42:17.440Z"
}